{
  "contractName": "MicropaymentsFactory",
  "abi": [
    {
      "anonymous": false,
      "inputs": [
        {
          "indexed": true,
          "internalType": "address",
          "name": "from",
          "type": "address"
        },
        {
          "indexed": true,
          "internalType": "address",
          "name": "location",
          "type": "address"
        },
        {
          "indexed": false,
          "internalType": "string",
          "name": "name",
          "type": "string"
        },
        {
          "indexed": false,
          "internalType": "uint256",
          "name": "createdAt",
          "type": "uint256"
        },
        {
          "indexed": false,
          "internalType": "uint256",
          "name": "value",
          "type": "uint256"
        }
      ],
      "name": "MicropaymentsCreated",
      "type": "event"
    },
    {
      "anonymous": false,
      "inputs": [
        {
          "indexed": true,
          "internalType": "address",
          "name": "previousOwner",
          "type": "address"
        },
        {
          "indexed": true,
          "internalType": "address",
          "name": "newOwner",
          "type": "address"
        }
      ],
      "name": "OwnershipTransferred",
      "type": "event"
    },
    {
      "inputs": [
        {
          "internalType": "uint256",
          "name": "",
          "type": "uint256"
        }
      ],
      "name": "contracts",
      "outputs": [
        {
          "internalType": "contract Micropayments",
          "name": "",
          "type": "address"
        }
      ],
      "stateMutability": "view",
      "type": "function",
      "constant": true
    },
    {
      "inputs": [],
      "name": "owner",
      "outputs": [
        {
          "internalType": "address",
          "name": "",
          "type": "address"
        }
      ],
      "stateMutability": "view",
      "type": "function",
      "constant": true
    },
    {
      "inputs": [],
      "name": "renounceOwnership",
      "outputs": [],
      "stateMutability": "nonpayable",
      "type": "function"
    },
    {
      "inputs": [
        {
          "internalType": "address",
          "name": "newOwner",
          "type": "address"
        }
      ],
      "name": "transferOwnership",
      "outputs": [],
      "stateMutability": "nonpayable",
      "type": "function"
    },
    {
      "inputs": [
        {
          "internalType": "string",
          "name": "name",
          "type": "string"
        }
      ],
      "name": "createMicropayment",
      "outputs": [],
      "stateMutability": "payable",
      "type": "function",
      "payable": true
    },
    {
      "inputs": [],
      "name": "getMicropaymentsContracts",
      "outputs": [
        {
          "components": [
            {
              "internalType": "contract Micropayments",
              "name": "location",
              "type": "address"
            },
            {
              "internalType": "string",
              "name": "name",
              "type": "string"
            }
          ],
          "internalType": "struct MicropaymentsFactory.MicropaymentData[]",
          "name": "_contracts",
          "type": "tuple[]"
        }
      ],
      "stateMutability": "view",
      "type": "function",
      "constant": true
    },
    {
      "inputs": [
        {
          "internalType": "string",
          "name": "name",
          "type": "string"
        }
      ],
      "name": "getMicropaymentsContractAddress",
      "outputs": [
        {
          "internalType": "address",
          "name": "",
          "type": "address"
        }
      ],
      "stateMutability": "view",
      "type": "function",
      "constant": true
    }
  ],
  "bytecode": "0x608060405234801561001057600080fd5b5061002d61002261003260201b60201c565b61003a60201b60201c565b6100fe565b600033905090565b60008060009054906101000a900473ffffffffffffffffffffffffffffffffffffffff169050816000806101000a81548173ffffffffffffffffffffffffffffffffffffffff021916908373ffffffffffffffffffffffffffffffffffffffff1602179055508173ffffffffffffffffffffffffffffffffffffffff168173ffffffffffffffffffffffffffffffffffffffff167f8be0079c531659141344cd1fd0a4f28419497f9722a3daafe3b4186f6b6457e060405160405180910390a35050565b612ac48061010d6000396000f3fe6080604052600436106200007a5760003560e01c8063715018a61162000055578063715018a614620001135780638da5cb5b146200012d578063a4cdac4a146200015d578063f2fde38b14620001a1576200007a565b80631d025e65146200007f578063361f636114620000af578063474da79a14620000cf575b600080fd5b3480156200008c57600080fd5b5062000097620001cf565b604051620000a6919062000c7b565b60405180910390f35b620000cd6004803603810190620000c7919062000e04565b620003d1565b005b348015620000dc57600080fd5b50620000fb6004803603810190620000f5919062000e90565b620006ea565b6040516200010a919062000ed3565b60405180910390f35b3480156200012057600080fd5b506200012b6200072a565b005b3480156200013a57600080fd5b5062000145620007bb565b60405162000154919062000f15565b60405180910390f35b3480156200016a57600080fd5b5062000189600480360381019062000183919062000e04565b620007e4565b60405162000198919062000f15565b60405180910390f35b348015620001ae57600080fd5b50620001cd6004803603810190620001c7919062000f63565b6200082d565b005b606060018054905067ffffffffffffffff811115620001f357620001f262000cbd565b5b6040519080825280602002602001820160405280156200023057816020015b6200021c620009fd565b815260200190600190039081620002125790505b50905060005b600180549050811015620003cd57600181815481106200025b576200025a62000f95565b5b9060005260206000200160009054906101000a900473ffffffffffffffffffffffffffffffffffffffff168282815181106200029c576200029b62000f95565b5b60200260200101516000019073ffffffffffffffffffffffffffffffffffffffff16908173ffffffffffffffffffffffffffffffffffffffff168152505060018181548110620002f157620002f062000f95565b5b9060005260206000200160009054906101000a900473ffffffffffffffffffffffffffffffffffffffff1673ffffffffffffffffffffffffffffffffffffffff166306fdde036040518163ffffffff1660e01b8152600401600060405180830381865afa15801562000367573d6000803e3d6000fd5b505050506040513d6000823e3d601f19601f8201168201806040525081019062000392919062001042565b828281518110620003a857620003a762000f95565b5b6020026020010151602001819052508080620003c490620010c2565b91505062000236565b5090565b620003db62000931565b73ffffffffffffffffffffffffffffffffffffffff16620003fb620007bb565b73ffffffffffffffffffffffffffffffffffffffff161462000454576040517f08c379a00000000000000000000000000000000000000000000000000000000081526004016200044b9062001171565b60405180910390fd5b600081805190602001209050600073ffffffffffffffffffffffffffffffffffffffff166002600083815260200190815260200160002060009054906101000a900473ffffffffffffffffffffffffffffffffffffffff1673ffffffffffffffffffffffffffffffffffffffff161462000505576040517f08c379a0000000000000000000000000000000000000000000000000000000008152600401620004fc90620011e3565b60405180910390fd5b60003483604051620005179062000a2d565b62000523919062001246565b6040518091039082f090508015801562000541573d6000803e3d6000fd5b5090508073ffffffffffffffffffffffffffffffffffffffff1663f2fde38b6200056a62000931565b6040518263ffffffff1660e01b815260040162000588919062000f15565b600060405180830381600087803b158015620005a357600080fd5b505af1158015620005b8573d6000803e3d6000fd5b50505050806002600084815260200190815260200160002060006101000a81548173ffffffffffffffffffffffffffffffffffffffff021916908373ffffffffffffffffffffffffffffffffffffffff1602179055506001819080600181540180825580915050600190039060005260206000200160009091909190916101000a81548173ffffffffffffffffffffffffffffffffffffffff021916908373ffffffffffffffffffffffffffffffffffffffff1602179055508073ffffffffffffffffffffffffffffffffffffffff166200069262000931565b73ffffffffffffffffffffffffffffffffffffffff167f0b42296e41ce278a9dcd91e4d5490472056339c7779b5c0d3f5e9706af735d44854234604051620006dd939291906200127b565b60405180910390a3505050565b60018181548110620006fb57600080fd5b906000526020600020016000915054906101000a900473ffffffffffffffffffffffffffffffffffffffff1681565b6200073462000931565b73ffffffffffffffffffffffffffffffffffffffff1662000754620007bb565b73ffffffffffffffffffffffffffffffffffffffff1614620007ad576040517f08c379a0000000000000000000000000000000000000000000000000000000008152600401620007a49062001171565b60405180910390fd5b620007b9600062000939565b565b60008060009054906101000a900473ffffffffffffffffffffffffffffffffffffffff16905090565b600080828051906020012090506002600082815260200190815260200160002060009054906101000a900473ffffffffffffffffffffffffffffffffffffffff16915050919050565b6200083762000931565b73ffffffffffffffffffffffffffffffffffffffff1662000857620007bb565b73ffffffffffffffffffffffffffffffffffffffff1614620008b0576040517f08c379a0000000000000000000000000000000000000000000000000000000008152600401620008a79062001171565b60405180910390fd5b600073ffffffffffffffffffffffffffffffffffffffff168173ffffffffffffffffffffffffffffffffffffffff16141562000923576040517f08c379a00000000000000000000000000000000000000000000000000000000081526004016200091a9062001335565b60405180910390fd5b6200092e8162000939565b50565b600033905090565b60008060009054906101000a900473ffffffffffffffffffffffffffffffffffffffff169050816000806101000a81548173ffffffffffffffffffffffffffffffffffffffff021916908373ffffffffffffffffffffffffffffffffffffffff1602179055508173ffffffffffffffffffffffffffffffffffffffff168173ffffffffffffffffffffffffffffffffffffffff167f8be0079c531659141344cd1fd0a4f28419497f9722a3daafe3b4186f6b6457e060405160405180910390a35050565b6040518060400160405280600073ffffffffffffffffffffffffffffffffffffffff168152602001606081525090565b611737806200135883390190565b600081519050919050565b600082825260208201905092915050565b6000819050602082019050919050565b600073ffffffffffffffffffffffffffffffffffffffff82169050919050565b6000819050919050565b600062000ab262000aac62000aa68462000a67565b62000a87565b62000a67565b9050919050565b600062000ac68262000a91565b9050919050565b600062000ada8262000ab9565b9050919050565b62000aec8162000acd565b82525050565b600081519050919050565b600082825260208201905092915050565b60005b8381101562000b2e57808201518184015260208101905062000b11565b8381111562000b3e576000848401525b50505050565b6000601f19601f8301169050919050565b600062000b628262000af2565b62000b6e818562000afd565b935062000b8081856020860162000b0e565b62000b8b8162000b44565b840191505092915050565b600060408301600083015162000bb0600086018262000ae1565b506020830151848203602086015262000bca828262000b55565b9150508091505092915050565b600062000be5838362000b96565b905092915050565b6000602082019050919050565b600062000c078262000a3b565b62000c13818562000a46565b93508360208202850162000c278562000a57565b8060005b8581101562000c69578484038952815162000c47858262000bd7565b945062000c548362000bed565b925060208a0199505060018101905062000c2b565b50829750879550505050505092915050565b6000602082019050818103600083015262000c97818462000bfa565b905092915050565b6000604051905090565b600080fd5b600080fd5b600080fd5b600080fd5b7f4e487b7100000000000000000000000000000000000000000000000000000000600052604160045260246000fd5b62000cf78262000b44565b810181811067ffffffffffffffff8211171562000d195762000d1862000cbd565b5b80604052505050565b600062000d2e62000c9f565b905062000d3c828262000cec565b919050565b600067ffffffffffffffff82111562000d5f5762000d5e62000cbd565b5b62000d6a8262000b44565b9050602081019050919050565b82818337600083830152505050565b600062000d9d62000d978462000d41565b62000d22565b90508281526020810184848401111562000dbc5762000dbb62000cb8565b5b62000dc984828562000d77565b509392505050565b600082601f83011262000de95762000de862000cb3565b5b813562000dfb84826020860162000d86565b91505092915050565b60006020828403121562000e1d5762000e1c62000ca9565b5b600082013567ffffffffffffffff81111562000e3e5762000e3d62000cae565b5b62000e4c8482850162000dd1565b91505092915050565b6000819050919050565b62000e6a8162000e55565b811462000e7657600080fd5b50565b60008135905062000e8a8162000e5f565b92915050565b60006020828403121562000ea95762000ea862000ca9565b5b600062000eb98482850162000e79565b91505092915050565b62000ecd8162000acd565b82525050565b600060208201905062000eea600083018462000ec2565b92915050565b600062000efd8262000a67565b9050919050565b62000f0f8162000ef0565b82525050565b600060208201905062000f2c600083018462000f04565b92915050565b62000f3d8162000ef0565b811462000f4957600080fd5b50565b60008135905062000f5d8162000f32565b92915050565b60006020828403121562000f7c5762000f7b62000ca9565b5b600062000f8c8482850162000f4c565b91505092915050565b7f4e487b7100000000000000000000000000000000000000000000000000000000600052603260045260246000fd5b600062000fdb62000fd58462000d41565b62000d22565b90508281526020810184848401111562000ffa5762000ff962000cb8565b5b6200100784828562000b0e565b509392505050565b600082601f83011262001027576200102662000cb3565b5b81516200103984826020860162000fc4565b91505092915050565b6000602082840312156200105b576200105a62000ca9565b5b600082015167ffffffffffffffff8111156200107c576200107b62000cae565b5b6200108a848285016200100f565b91505092915050565b7f4e487b7100000000000000000000000000000000000000000000000000000000600052601160045260246000fd5b6000620010cf8262000e55565b91507fffffffffffffffffffffffffffffffffffffffffffffffffffffffffffffffff82141562001105576200110462001093565b5b600182019050919050565b600082825260208201905092915050565b7f4f776e61626c653a2063616c6c6572206973206e6f7420746865206f776e6572600082015250565b60006200115960208362001110565b9150620011668262001121565b602082019050919050565b600060208201905081810360008301526200118c816200114a565b9050919050565b7f5b466163746f72795d204e616d6520616c726561647920657869737473000000600082015250565b6000620011cb601d8362001110565b9150620011d88262001193565b602082019050919050565b60006020820190508181036000830152620011fe81620011bc565b9050919050565b6000620012128262000af2565b6200121e818562001110565b93506200123081856020860162000b0e565b6200123b8162000b44565b840191505092915050565b6000602082019050818103600083015262001262818462001205565b905092915050565b620012758162000e55565b82525050565b6000606082019050818103600083015262001297818662001205565b9050620012a860208301856200126a565b620012b760408301846200126a565b949350505050565b7f4f776e61626c653a206e6577206f776e657220697320746865207a65726f206160008201527f6464726573730000000000000000000000000000000000000000000000000000602082015250565b60006200131d60268362001110565b91506200132a82620012bf565b604082019050919050565b6000602082019050818103600083015262001350816200130e565b905091905056fe60806040526040516200173738038062001737833981810160405281019062000029919062000382565b620000496200003d6200006960201b60201c565b6200007160201b60201c565b80600290805190602001906200006192919062000135565b505062000438565b600033905090565b60008060009054906101000a900473ffffffffffffffffffffffffffffffffffffffff169050816000806101000a81548173ffffffffffffffffffffffffffffffffffffffff021916908373ffffffffffffffffffffffffffffffffffffffff1602179055508173ffffffffffffffffffffffffffffffffffffffff168173ffffffffffffffffffffffffffffffffffffffff167f8be0079c531659141344cd1fd0a4f28419497f9722a3daafe3b4186f6b6457e060405160405180910390a35050565b828054620001439062000402565b90600052602060002090601f016020900481019282620001675760008555620001b3565b82601f106200018257805160ff1916838001178555620001b3565b82800160010185558215620001b3579182015b82811115620001b257825182559160200191906001019062000195565b5b509050620001c29190620001c6565b5090565b5b80821115620001e1576000816000905550600101620001c7565b5090565b6000604051905090565b600080fd5b600080fd5b600080fd5b600080fd5b6000601f19601f8301169050919050565b7f4e487b7100000000000000000000000000000000000000000000000000000000600052604160045260246000fd5b6200024e8262000203565b810181811067ffffffffffffffff8211171562000270576200026f62000214565b5b80604052505050565b600062000285620001e5565b905062000293828262000243565b919050565b600067ffffffffffffffff821115620002b657620002b562000214565b5b620002c18262000203565b9050602081019050919050565b60005b83811015620002ee578082015181840152602081019050620002d1565b83811115620002fe576000848401525b50505050565b60006200031b620003158462000298565b62000279565b9050828152602081018484840111156200033a5762000339620001fe565b5b62000347848285620002ce565b509392505050565b600082601f830112620003675762000366620001f9565b5b81516200037984826020860162000304565b91505092915050565b6000602082840312156200039b576200039a620001ef565b5b600082015167ffffffffffffffff811115620003bc57620003bb620001f4565b5b620003ca848285016200034f565b91505092915050565b7f4e487b7100000000000000000000000000000000000000000000000000000000600052602260045260246000fd5b600060028204905060018216806200041b57607f821691505b60208210811415620004325762000431620003d3565b5b50919050565b6112ef80620004486000396000f3fe608060405234801561001057600080fd5b506004361061007d5760003560e01c80638da5cb5b1161005b5780638da5cb5b146100c8578063a90ae887146100e6578063f2fde38b14610102578063fc0e74d11461011e5761007d565b806306fdde031461008257806312065fe0146100a0578063715018a6146100be575b600080fd5b61008a610128565b604051610097919061095a565b60405180910390f35b6100a86101b6565b6040516100b59190610995565b60405180910390f35b6100c661023a565b005b6100d06102c2565b6040516100dd91906109f1565b60405180910390f35b61010060048036038101906100fb9190610b81565b6102eb565b005b61011c60048036038101906101179190610c1c565b6104ea565b005b6101266105e2565b005b6002805461013590610c78565b80601f016020809104026020016040519081016040528092919081815260200182805461016190610c78565b80156101ae5780601f10610183576101008083540402835291602001916101ae565b820191906000526020600020905b81548152906001019060200180831161019157829003601f168201915b505050505081565b60006101c061067e565b73ffffffffffffffffffffffffffffffffffffffff166101de6102c2565b73ffffffffffffffffffffffffffffffffffffffff1614610234576040517f08c379a000000000000000000000000000000000000000000000000000000000815260040161022b90610cf6565b60405180910390fd5b47905090565b61024261067e565b73ffffffffffffffffffffffffffffffffffffffff166102606102c2565b73ffffffffffffffffffffffffffffffffffffffff16146102b6576040517f08c379a00000000000000000000000000000000000000000000000000000000081526004016102ad90610cf6565b60405180910390fd5b6102c06000610686565b565b60008060009054906101000a900473ffffffffffffffffffffffffffffffffffffffff16905090565b6001600083815260200190815260200160002060009054906101000a900460ff161561034c576040517f08c379a000000000000000000000000000000000000000000000000000000000815260040161034390610d62565b60405180910390fd5b600180600084815260200190815260200160002060006101000a81548160ff02191690831515021790555060006103b561038461067e565b85853060405160200161039a9493929190610e52565b6040516020818303038152906040528051906020012061074a565b90506103bf6102c2565b73ffffffffffffffffffffffffffffffffffffffff166103e8838361077a90919063ffffffff16565b73ffffffffffffffffffffffffffffffffffffffff161461043e576040517f08c379a000000000000000000000000000000000000000000000000000000000815260040161043590610eec565b60405180910390fd5b61044661067e565b73ffffffffffffffffffffffffffffffffffffffff166108fc859081150290604051600060405180830381858888f1935050505015801561048b573d6000803e3d6000fd5b5061049461067e565b73ffffffffffffffffffffffffffffffffffffffff167f259518171e898fe96b33f374a520999c252ee3effda8db766b04eec5dbc8a4ad6002426040516104dc929190610fa1565b60405180910390a250505050565b6104f261067e565b73ffffffffffffffffffffffffffffffffffffffff166105106102c2565b73ffffffffffffffffffffffffffffffffffffffff1614610566576040517f08c379a000000000000000000000000000000000000000000000000000000000815260040161055d90610cf6565b60405180910390fd5b600073ffffffffffffffffffffffffffffffffffffffff168173ffffffffffffffffffffffffffffffffffffffff1614156105d6576040517f08c379a00000000000000000000000000000000000000000000000000000000081526004016105cd90611043565b60405180910390fd5b6105df81610686565b50565b6105ea61067e565b73ffffffffffffffffffffffffffffffffffffffff166106086102c2565b73ffffffffffffffffffffffffffffffffffffffff161461065e576040517f08c379a000000000000000000000000000000000000000000000000000000000815260040161065590610cf6565b60405180910390fd5b6106666102c2565b73ffffffffffffffffffffffffffffffffffffffff16ff5b600033905090565b60008060009054906101000a900473ffffffffffffffffffffffffffffffffffffffff169050816000806101000a81548173ffffffffffffffffffffffffffffffffffffffff021916908373ffffffffffffffffffffffffffffffffffffffff1602179055508173ffffffffffffffffffffffffffffffffffffffff168173ffffffffffffffffffffffffffffffffffffffff167f8be0079c531659141344cd1fd0a4f28419497f9722a3daafe3b4186f6b6457e060405160405180910390a35050565b60008160405160200161075d91906110e5565b604051602081830303815290604052805190602001209050919050565b600080600080610789856107e9565b925092509250600186848484604051600081526020016040526040516107b29493929190611136565b6020604051602081039080840390855afa1580156107d4573d6000803e3d6000fd5b50505060206040510351935050505092915050565b60008060006041845114610832576040517f08c379a0000000000000000000000000000000000000000000000000000000008152600401610829906111c7565b60405180910390fd5b602084015191506040840151905060ff6041850151169250601b8360ff16101561086657601b836108639190611216565b92505b601b8360ff16148061087b5750601c8360ff16145b6108ba576040517f08c379a00000000000000000000000000000000000000000000000000000000081526004016108b190611299565b60405180910390fd5b9193909250565b600081519050919050565b600082825260208201905092915050565b60005b838110156108fb5780820151818401526020810190506108e0565b8381111561090a576000848401525b50505050565b6000601f19601f8301169050919050565b600061092c826108c1565b61093681856108cc565b93506109468185602086016108dd565b61094f81610910565b840191505092915050565b600060208201905081810360008301526109748184610921565b905092915050565b6000819050919050565b61098f8161097c565b82525050565b60006020820190506109aa6000830184610986565b92915050565b600073ffffffffffffffffffffffffffffffffffffffff82169050919050565b60006109db826109b0565b9050919050565b6109eb816109d0565b82525050565b6000602082019050610a0660008301846109e2565b92915050565b6000604051905090565b600080fd5b600080fd5b610a298161097c565b8114610a3457600080fd5b50565b600081359050610a4681610a20565b92915050565b600080fd5b600080fd5b7f4e487b7100000000000000000000000000000000000000000000000000000000600052604160045260246000fd5b610a8e82610910565b810181811067ffffffffffffffff82111715610aad57610aac610a56565b5b80604052505050565b6000610ac0610a0c565b9050610acc8282610a85565b919050565b600067ffffffffffffffff821115610aec57610aeb610a56565b5b610af582610910565b9050602081019050919050565b82818337600083830152505050565b6000610b24610b1f84610ad1565b610ab6565b905082815260208101848484011115610b4057610b3f610a51565b5b610b4b848285610b02565b509392505050565b600082601f830112610b6857610b67610a4c565b5b8135610b78848260208601610b11565b91505092915050565b600080600060608486031215610b9a57610b99610a16565b5b6000610ba886828701610a37565b9350506020610bb986828701610a37565b925050604084013567ffffffffffffffff811115610bda57610bd9610a1b565b5b610be686828701610b53565b9150509250925092565b610bf9816109d0565b8114610c0457600080fd5b50565b600081359050610c1681610bf0565b92915050565b600060208284031215610c3257610c31610a16565b5b6000610c4084828501610c07565b91505092915050565b7f4e487b7100000000000000000000000000000000000000000000000000000000600052602260045260246000fd5b60006002820490506001821680610c9057607f821691505b60208210811415610ca457610ca3610c49565b5b50919050565b7f4f776e61626c653a2063616c6c6572206973206e6f7420746865206f776e6572600082015250565b6000610ce06020836108cc565b9150610ceb82610caa565b602082019050919050565b60006020820190508181036000830152610d0f81610cd3565b9050919050565b7f436c61696d20616c726561647920646f6e650000000000000000000000000000600082015250565b6000610d4c6012836108cc565b9150610d5782610d16565b602082019050919050565b60006020820190508181036000830152610d7b81610d3f565b9050919050565b60008160601b9050919050565b6000610d9a82610d82565b9050919050565b6000610dac82610d8f565b9050919050565b610dc4610dbf826109d0565b610da1565b82525050565b6000819050919050565b610de5610de08261097c565b610dca565b82525050565b6000819050919050565b6000610e10610e0b610e06846109b0565b610deb565b6109b0565b9050919050565b6000610e2282610df5565b9050919050565b6000610e3482610e17565b9050919050565b610e4c610e4782610e29565b610da1565b82525050565b6000610e5e8287610db3565b601482019150610e6e8286610dd4565b602082019150610e7e8285610dd4565b602082019150610e8e8284610e3b565b60148201915081905095945050505050565b7f5369676e617475726520697320696e76616c6964205b6f776e65725d00000000600082015250565b6000610ed6601c836108cc565b9150610ee182610ea0565b602082019050919050565b60006020820190508181036000830152610f0581610ec9565b9050919050565b60008190508160005260206000209050919050565b60008154610f2e81610c78565b610f3881866108cc565b94506001821660008114610f535760018114610f6557610f98565b60ff1983168652602086019350610f98565b610f6e85610f0c565b60005b83811015610f9057815481890152600182019150602081019050610f71565b808801955050505b50505092915050565b60006040820190508181036000830152610fbb8185610f21565b9050610fca6020830184610986565b9392505050565b7f4f776e61626c653a206e6577206f776e657220697320746865207a65726f206160008201527f6464726573730000000000000000000000000000000000000000000000000000602082015250565b600061102d6026836108cc565b915061103882610fd1565b604082019050919050565b6000602082019050818103600083015261105c81611020565b9050919050565b600081905092915050565b7f19457468657265756d205369676e6564204d6573736167653a0a333200000000600082015250565b60006110a4601c83611063565b91506110af8261106e565b601c82019050919050565b6000819050919050565b6000819050919050565b6110df6110da826110ba565b6110c4565b82525050565b60006110f082611097565b91506110fc82846110ce565b60208201915081905092915050565b611114816110ba565b82525050565b600060ff82169050919050565b6111308161111a565b82525050565b600060808201905061114b600083018761110b565b6111586020830186611127565b611165604083018561110b565b611172606083018461110b565b95945050505050565b7f5369676e617475726520697320696e76616c6964205b6c656e6774685d000000600082015250565b60006111b1601d836108cc565b91506111bc8261117b565b602082019050919050565b600060208201905081810360008301526111e0816111a4565b9050919050565b7f4e487b7100000000000000000000000000000000000000000000000000000000600052601160045260246000fd5b60006112218261111a565b915061122c8361111a565b92508260ff03821115611242576112416111e7565b5b828201905092915050565b7f5369676e617475726520697320696e76616c6964205b666f726d61745d000000600082015250565b6000611283601d836108cc565b915061128e8261124d565b602082019050919050565b600060208201905081810360008301526112b281611276565b905091905056fea26469706673582212209479f3ce85e74b7fe4721a39341cf2f6d94bc58260a8644ae17bfed09976ac7464736f6c634300080c0033a2646970667358221220aca43769c04b55532da1d8e102804f7c152a6ec5ea83558e5da35cc29d6b11fc64736f6c634300080c0033",
  "immutableReferences": {},
  "source": "// SPDX-License-Identifier: GPL-3.0\r\npragma solidity ^0.8.10;\r\n\r\nimport \"@openzeppelin/contracts/access/Ownable.sol\";\r\nimport \"./Micropayments.sol\";\r\n\r\ncontract MicropaymentsFactory is Ownable {\r\n    struct MicropaymentData {\r\n        Micropayments location;\r\n        string name;\r\n    }\r\n\r\n    Micropayments[] public contracts;\r\n    mapping(bytes32 => address) private nameToAddress;\r\n\r\n    event MicropaymentsCreated(address indexed from, address indexed location, string name, uint256 createdAt, uint256 value);\r\n\r\n    function createMicropayment(string memory name) external payable onlyOwner {\r\n        bytes32 nameHash = keccak256(bytes(name));\r\n        require(nameToAddress[nameHash] == address(0), \"[Factory] Name already exists\");\r\n\r\n        Micropayments micropaymentContract = (new Micropayments){value: msg.value}(name);\r\n        micropaymentContract.transferOwnership(_msgSender());\r\n\r\n        nameToAddress[nameHash] = address(micropaymentContract);\r\n        contracts.push(micropaymentContract);\r\n\r\n        emit MicropaymentsCreated(_msgSender(), address(micropaymentContract), name, block.timestamp, msg.value);\r\n    }\r\n\r\n    function getMicropaymentsContracts() external view returns (MicropaymentData[] memory _contracts) {\r\n        _contracts = new MicropaymentData[](contracts.length);\r\n        for (uint256 i = 0; i < contracts.length; i++) {\r\n            _contracts[i].location = contracts[i];\r\n            _contracts[i].name = Micropayments(contracts[i]).name();\r\n        }\r\n    }\r\n\r\n    function getMicropaymentsContractAddress(string memory name) external view returns (address) {\r\n        bytes32 nameHash = keccak256(bytes(name));\r\n        return nameToAddress[nameHash];\r\n    }\r\n}\r\n",
  "sourcePath": "C:\\SouthWorks\\Micropayments\\contracts\\MicropaymentsFactory.sol",
  "compiler": {
    "name": "solc",
    "version": "0.8.12+commit.f00d7308.Emscripten.clang"
  },
  "schemaVersion": "3.4.4",
  "updatedAt": "2022-02-27T19:43:08.786Z",
  "networkType": "ethereum",
  "devdoc": {
    "kind": "dev",
    "methods": {
      "owner()": {
        "details": "Returns the address of the current owner."
      },
      "renounceOwnership()": {
        "details": "Leaves the contract without owner. It will not be possible to call `onlyOwner` functions anymore. Can only be called by the current owner. NOTE: Renouncing ownership will leave the contract without an owner, thereby removing any functionality that is only available to the owner."
      },
      "transferOwnership(address)": {
        "details": "Transfers ownership of the contract to a new account (`newOwner`). Can only be called by the current owner."
      }
    },
    "version": 1
  },
  "userdoc": {
    "kind": "user",
    "methods": {},
    "version": 1
  }
}