{
  "contractName": "MicropaymentsFactory",
  "abi": [
    {
      "anonymous": false,
      "inputs": [
        {
          "indexed": true,
          "internalType": "address",
          "name": "from",
          "type": "address"
        },
        {
          "indexed": true,
          "internalType": "address",
          "name": "location",
          "type": "address"
        },
        {
          "indexed": false,
          "internalType": "string",
          "name": "name",
          "type": "string"
        },
        {
          "indexed": false,
          "internalType": "uint256",
          "name": "createdAt",
          "type": "uint256"
        },
        {
          "indexed": false,
          "internalType": "uint256",
          "name": "value",
          "type": "uint256"
        }
      ],
      "name": "MicropaymentsCreated",
      "type": "event"
    },
    {
      "anonymous": false,
      "inputs": [
        {
          "indexed": true,
          "internalType": "address",
          "name": "from",
          "type": "address"
        },
        {
          "indexed": true,
          "internalType": "address",
          "name": "location",
          "type": "address"
        }
      ],
      "name": "MicropaymentsDeleted",
      "type": "event"
    },
    {
      "anonymous": false,
      "inputs": [
        {
          "indexed": true,
          "internalType": "address",
          "name": "previousOwner",
          "type": "address"
        },
        {
          "indexed": true,
          "internalType": "address",
          "name": "newOwner",
          "type": "address"
        }
      ],
      "name": "OwnershipTransferred",
      "type": "event"
    },
    {
      "inputs": [
        {
          "internalType": "uint256",
          "name": "",
          "type": "uint256"
        }
      ],
      "name": "contracts",
      "outputs": [
        {
          "internalType": "contract Micropayments",
          "name": "",
          "type": "address"
        }
      ],
      "stateMutability": "view",
      "type": "function",
      "constant": true
    },
    {
      "inputs": [],
      "name": "owner",
      "outputs": [
        {
          "internalType": "address",
          "name": "",
          "type": "address"
        }
      ],
      "stateMutability": "view",
      "type": "function",
      "constant": true
    },
    {
      "inputs": [],
      "name": "renounceOwnership",
      "outputs": [],
      "stateMutability": "nonpayable",
      "type": "function"
    },
    {
      "inputs": [
        {
          "internalType": "address",
          "name": "newOwner",
          "type": "address"
        }
      ],
      "name": "transferOwnership",
      "outputs": [],
      "stateMutability": "nonpayable",
      "type": "function"
    },
    {
      "inputs": [
        {
          "internalType": "string",
          "name": "name",
          "type": "string"
        }
      ],
      "name": "createMicropayment",
      "outputs": [],
      "stateMutability": "payable",
      "type": "function",
      "payable": true
    },
    {
      "inputs": [],
      "name": "getMicropaymentsContracts",
      "outputs": [
        {
          "components": [
            {
              "internalType": "address",
              "name": "location",
              "type": "address"
            },
            {
              "internalType": "string",
              "name": "name",
              "type": "string"
            }
          ],
          "internalType": "struct MicropaymentsFactory.MicropaymentData[]",
          "name": "_contracts",
          "type": "tuple[]"
        }
      ],
      "stateMutability": "view",
      "type": "function",
      "constant": true
    },
    {
      "inputs": [
        {
          "internalType": "string",
          "name": "name",
          "type": "string"
        }
      ],
      "name": "getMicropaymentsContractAddress",
      "outputs": [
        {
          "internalType": "address",
          "name": "",
          "type": "address"
        }
      ],
      "stateMutability": "view",
      "type": "function",
      "constant": true
    },
    {
      "inputs": [
        {
          "internalType": "address",
          "name": "location",
          "type": "address"
        }
      ],
      "name": "deleteContract",
      "outputs": [],
      "stateMutability": "nonpayable",
      "type": "function"
    }
  ],
  "bytecode": "0x608060405234801561001057600080fd5b5061002d61002261003260201b60201c565b61003a60201b60201c565b6100fe565b600033905090565b60008060009054906101000a900473ffffffffffffffffffffffffffffffffffffffff169050816000806101000a81548173ffffffffffffffffffffffffffffffffffffffff021916908373ffffffffffffffffffffffffffffffffffffffff1602179055508173ffffffffffffffffffffffffffffffffffffffff168173ffffffffffffffffffffffffffffffffffffffff167f8be0079c531659141344cd1fd0a4f28419497f9722a3daafe3b4186f6b6457e060405160405180910390a35050565b612faa8061010d6000396000f3fe608060405260043610620000865760003560e01c8063715018a61162000055578063715018a6146200014d5780638da5cb5b1462000167578063a4cdac4a1462000197578063f2fde38b14620001db5762000086565b80631d025e65146200008b5780632637a47714620000bb578063361f636114620000e9578063474da79a1462000109575b600080fd5b3480156200009857600080fd5b50620000a362000209565b604051620000b2919062000f8b565b60405180910390f35b348015620000c857600080fd5b50620000e76004803603810190620000e1919062000ff4565b6200040b565b005b62000107600480360381019062000101919062001177565b620006de565b005b3480156200011657600080fd5b506200013560048036038101906200012f919062001203565b62000a40565b604051620001449190620012a0565b60405180910390f35b3480156200015a57600080fd5b506200016562000a80565b005b3480156200017457600080fd5b506200017f62000b11565b6040516200018e9190620012ce565b60405180910390f35b348015620001a457600080fd5b50620001c36004803603810190620001bd919062001177565b62000b3a565b604051620001d29190620012ce565b60405180910390f35b348015620001e857600080fd5b5062000207600480360381019062000201919062000ff4565b62000b83565b005b606060018054905067ffffffffffffffff8111156200022d576200022c62001030565b5b6040519080825280602002602001820160405280156200026a57816020015b6200025662000d53565b8152602001906001900390816200024c5790505b50905060005b600180549050811015620004075760018181548110620002955762000294620012eb565b5b9060005260206000200160009054906101000a900473ffffffffffffffffffffffffffffffffffffffff16828281518110620002d657620002d5620012eb565b5b60200260200101516000019073ffffffffffffffffffffffffffffffffffffffff16908173ffffffffffffffffffffffffffffffffffffffff1681525050600181815481106200032b576200032a620012eb565b5b9060005260206000200160009054906101000a900473ffffffffffffffffffffffffffffffffffffffff1673ffffffffffffffffffffffffffffffffffffffff166306fdde036040518163ffffffff1660e01b8152600401600060405180830381865afa158015620003a1573d6000803e3d6000fd5b505050506040513d6000823e3d601f19601f82011682018060405250810190620003cc919062001398565b828281518110620003e257620003e1620012eb565b5b6020026020010151602001819052508080620003fe9062001418565b91505062000270565b5090565b6200041562000c87565b73ffffffffffffffffffffffffffffffffffffffff166200043562000b11565b73ffffffffffffffffffffffffffffffffffffffff16146200048e576040517f08c379a00000000000000000000000000000000000000000000000000000000081526004016200048590620014c7565b60405180910390fd5b6000600360008373ffffffffffffffffffffffffffffffffffffffff1673ffffffffffffffffffffffffffffffffffffffff168152602001908152602001600020549050600060018281548110620004eb57620004ea620012eb565b5b9060005260206000200160009054906101000a900473ffffffffffffffffffffffffffffffffffffffff1690508073ffffffffffffffffffffffffffffffffffffffff1663fc0e74d16040518163ffffffff1660e01b8152600401600060405180830381600087803b1580156200056157600080fd5b505af115801562000576573d6000803e3d6000fd5b5050505060018080805490506200058e9190620014e9565b81548110620005a257620005a1620012eb565b5b9060005260206000200160009054906101000a900473ffffffffffffffffffffffffffffffffffffffff1660018381548110620005e457620005e3620012eb565b5b9060005260206000200160006101000a81548173ffffffffffffffffffffffffffffffffffffffff021916908373ffffffffffffffffffffffffffffffffffffffff160217905550600180548062000641576200064062001524565b5b6001900381819060005260206000200160006101000a81549073ffffffffffffffffffffffffffffffffffffffff021916905590558273ffffffffffffffffffffffffffffffffffffffff166200069762000c87565b73ffffffffffffffffffffffffffffffffffffffff167fb84299a14bbfe4d2d0b71eab16c82f356c8489fa2cbf3c1993eef272d5e2681a60405160405180910390a3505050565b620006e862000c87565b73ffffffffffffffffffffffffffffffffffffffff166200070862000b11565b73ffffffffffffffffffffffffffffffffffffffff161462000761576040517f08c379a00000000000000000000000000000000000000000000000000000000081526004016200075890620014c7565b60405180910390fd5b600081805190602001209050600073ffffffffffffffffffffffffffffffffffffffff166002600083815260200190815260200160002060009054906101000a900473ffffffffffffffffffffffffffffffffffffffff1673ffffffffffffffffffffffffffffffffffffffff161462000812576040517f08c379a00000000000000000000000000000000000000000000000000000000081526004016200080990620015a3565b60405180910390fd5b60003483604051620008249062000d83565b62000830919062001606565b6040518091039082f09050801580156200084e573d6000803e3d6000fd5b5090508073ffffffffffffffffffffffffffffffffffffffff1663f2fde38b6200087762000c87565b6040518263ffffffff1660e01b8152600401620008959190620012ce565b600060405180830381600087803b158015620008b057600080fd5b505af1158015620008c5573d6000803e3d6000fd5b50505050600180549050600360008373ffffffffffffffffffffffffffffffffffffffff1673ffffffffffffffffffffffffffffffffffffffff16815260200190815260200160002081905550806002600084815260200190815260200160002060006101000a81548173ffffffffffffffffffffffffffffffffffffffff021916908373ffffffffffffffffffffffffffffffffffffffff1602179055506001819080600181540180825580915050600190039060005260206000200160009091909190916101000a81548173ffffffffffffffffffffffffffffffffffffffff021916908373ffffffffffffffffffffffffffffffffffffffff1602179055508073ffffffffffffffffffffffffffffffffffffffff16620009e862000c87565b73ffffffffffffffffffffffffffffffffffffffff167f0b42296e41ce278a9dcd91e4d5490472056339c7779b5c0d3f5e9706af735d4485423460405162000a33939291906200163b565b60405180910390a3505050565b6001818154811062000a5157600080fd5b906000526020600020016000915054906101000a900473ffffffffffffffffffffffffffffffffffffffff1681565b62000a8a62000c87565b73ffffffffffffffffffffffffffffffffffffffff1662000aaa62000b11565b73ffffffffffffffffffffffffffffffffffffffff161462000b03576040517f08c379a000000000000000000000000000000000000000000000000000000000815260040162000afa90620014c7565b60405180910390fd5b62000b0f600062000c8f565b565b60008060009054906101000a900473ffffffffffffffffffffffffffffffffffffffff16905090565b600080828051906020012090506002600082815260200190815260200160002060009054906101000a900473ffffffffffffffffffffffffffffffffffffffff16915050919050565b62000b8d62000c87565b73ffffffffffffffffffffffffffffffffffffffff1662000bad62000b11565b73ffffffffffffffffffffffffffffffffffffffff161462000c06576040517f08c379a000000000000000000000000000000000000000000000000000000000815260040162000bfd90620014c7565b60405180910390fd5b600073ffffffffffffffffffffffffffffffffffffffff168173ffffffffffffffffffffffffffffffffffffffff16141562000c79576040517f08c379a000000000000000000000000000000000000000000000000000000000815260040162000c7090620016f5565b60405180910390fd5b62000c848162000c8f565b50565b600033905090565b60008060009054906101000a900473ffffffffffffffffffffffffffffffffffffffff169050816000806101000a81548173ffffffffffffffffffffffffffffffffffffffff021916908373ffffffffffffffffffffffffffffffffffffffff1602179055508173ffffffffffffffffffffffffffffffffffffffff168173ffffffffffffffffffffffffffffffffffffffff167f8be0079c531659141344cd1fd0a4f28419497f9722a3daafe3b4186f6b6457e060405160405180910390a35050565b6040518060400160405280600073ffffffffffffffffffffffffffffffffffffffff168152602001606081525090565b61185d806200171883390190565b600081519050919050565b600082825260208201905092915050565b6000819050602082019050919050565b600073ffffffffffffffffffffffffffffffffffffffff82169050919050565b600062000dea8262000dbd565b9050919050565b62000dfc8162000ddd565b82525050565b600081519050919050565b600082825260208201905092915050565b60005b8381101562000e3e57808201518184015260208101905062000e21565b8381111562000e4e576000848401525b50505050565b6000601f19601f8301169050919050565b600062000e728262000e02565b62000e7e818562000e0d565b935062000e9081856020860162000e1e565b62000e9b8162000e54565b840191505092915050565b600060408301600083015162000ec0600086018262000df1565b506020830151848203602086015262000eda828262000e65565b9150508091505092915050565b600062000ef5838362000ea6565b905092915050565b6000602082019050919050565b600062000f178262000d91565b62000f23818562000d9c565b93508360208202850162000f378562000dad565b8060005b8581101562000f79578484038952815162000f57858262000ee7565b945062000f648362000efd565b925060208a0199505060018101905062000f3b565b50829750879550505050505092915050565b6000602082019050818103600083015262000fa7818462000f0a565b905092915050565b6000604051905090565b600080fd5b600080fd5b62000fce8162000ddd565b811462000fda57600080fd5b50565b60008135905062000fee8162000fc3565b92915050565b6000602082840312156200100d576200100c62000fb9565b5b60006200101d8482850162000fdd565b91505092915050565b600080fd5b600080fd5b7f4e487b7100000000000000000000000000000000000000000000000000000000600052604160045260246000fd5b6200106a8262000e54565b810181811067ffffffffffffffff821117156200108c576200108b62001030565b5b80604052505050565b6000620010a162000faf565b9050620010af82826200105f565b919050565b600067ffffffffffffffff821115620010d257620010d162001030565b5b620010dd8262000e54565b9050602081019050919050565b82818337600083830152505050565b6000620011106200110a84620010b4565b62001095565b9050828152602081018484840111156200112f576200112e6200102b565b5b6200113c848285620010ea565b509392505050565b600082601f8301126200115c576200115b62001026565b5b81356200116e848260208601620010f9565b91505092915050565b60006020828403121562001190576200118f62000fb9565b5b600082013567ffffffffffffffff811115620011b157620011b062000fbe565b5b620011bf8482850162001144565b91505092915050565b6000819050919050565b620011dd81620011c8565b8114620011e957600080fd5b50565b600081359050620011fd81620011d2565b92915050565b6000602082840312156200121c576200121b62000fb9565b5b60006200122c84828501620011ec565b91505092915050565b6000819050919050565b6000620012606200125a620012548462000dbd565b62001235565b62000dbd565b9050919050565b600062001274826200123f565b9050919050565b6000620012888262001267565b9050919050565b6200129a816200127b565b82525050565b6000602082019050620012b760008301846200128f565b92915050565b620012c88162000ddd565b82525050565b6000602082019050620012e56000830184620012bd565b92915050565b7f4e487b7100000000000000000000000000000000000000000000000000000000600052603260045260246000fd5b6000620013316200132b84620010b4565b62001095565b90508281526020810184848401111562001350576200134f6200102b565b5b6200135d84828562000e1e565b509392505050565b600082601f8301126200137d576200137c62001026565b5b81516200138f8482602086016200131a565b91505092915050565b600060208284031215620013b157620013b062000fb9565b5b600082015167ffffffffffffffff811115620013d257620013d162000fbe565b5b620013e08482850162001365565b91505092915050565b7f4e487b7100000000000000000000000000000000000000000000000000000000600052601160045260246000fd5b60006200142582620011c8565b91507fffffffffffffffffffffffffffffffffffffffffffffffffffffffffffffffff8214156200145b576200145a620013e9565b5b600182019050919050565b600082825260208201905092915050565b7f4f776e61626c653a2063616c6c6572206973206e6f7420746865206f776e6572600082015250565b6000620014af60208362001466565b9150620014bc8262001477565b602082019050919050565b60006020820190508181036000830152620014e281620014a0565b9050919050565b6000620014f682620011c8565b91506200150383620011c8565b925082821015620015195762001518620013e9565b5b828203905092915050565b7f4e487b7100000000000000000000000000000000000000000000000000000000600052603160045260246000fd5b7f5b466163746f72795d204e616d6520616c726561647920657869737473000000600082015250565b60006200158b601d8362001466565b9150620015988262001553565b602082019050919050565b60006020820190508181036000830152620015be816200157c565b9050919050565b6000620015d28262000e02565b620015de818562001466565b9350620015f081856020860162000e1e565b620015fb8162000e54565b840191505092915050565b60006020820190508181036000830152620016228184620015c5565b905092915050565b6200163581620011c8565b82525050565b60006060820190508181036000830152620016578186620015c5565b90506200166860208301856200162a565b6200167760408301846200162a565b949350505050565b7f4f776e61626c653a206e6577206f776e657220697320746865207a65726f206160008201527f6464726573730000000000000000000000000000000000000000000000000000602082015250565b6000620016dd60268362001466565b9150620016ea826200167f565b604082019050919050565b600060208201905081810360008301526200171081620016ce565b905091905056fe60806040526040516200185d3803806200185d8339818101604052810190620000299190620003d2565b620000496200003d620000b960201b60201c565b620000c160201b60201c565b80600290805190602001906200006192919062000185565b5062000072620000b960201b60201c565b600360006101000a81548173ffffffffffffffffffffffffffffffffffffffff021916908373ffffffffffffffffffffffffffffffffffffffff1602179055505062000488565b600033905090565b60008060009054906101000a900473ffffffffffffffffffffffffffffffffffffffff169050816000806101000a81548173ffffffffffffffffffffffffffffffffffffffff021916908373ffffffffffffffffffffffffffffffffffffffff1602179055508173ffffffffffffffffffffffffffffffffffffffff168173ffffffffffffffffffffffffffffffffffffffff167f8be0079c531659141344cd1fd0a4f28419497f9722a3daafe3b4186f6b6457e060405160405180910390a35050565b828054620001939062000452565b90600052602060002090601f016020900481019282620001b7576000855562000203565b82601f10620001d257805160ff191683800117855562000203565b8280016001018555821562000203579182015b8281111562000202578251825591602001919060010190620001e5565b5b50905062000212919062000216565b5090565b5b808211156200023157600081600090555060010162000217565b5090565b6000604051905090565b600080fd5b600080fd5b600080fd5b600080fd5b6000601f19601f8301169050919050565b7f4e487b7100000000000000000000000000000000000000000000000000000000600052604160045260246000fd5b6200029e8262000253565b810181811067ffffffffffffffff82111715620002c057620002bf62000264565b5b80604052505050565b6000620002d562000235565b9050620002e3828262000293565b919050565b600067ffffffffffffffff82111562000306576200030562000264565b5b620003118262000253565b9050602081019050919050565b60005b838110156200033e57808201518184015260208101905062000321565b838111156200034e576000848401525b50505050565b60006200036b6200036584620002e8565b620002c9565b9050828152602081018484840111156200038a57620003896200024e565b5b620003978482856200031e565b509392505050565b600082601f830112620003b757620003b662000249565b5b8151620003c984826020860162000354565b91505092915050565b600060208284031215620003eb57620003ea6200023f565b5b600082015167ffffffffffffffff8111156200040c576200040b62000244565b5b6200041a848285016200039f565b91505092915050565b7f4e487b7100000000000000000000000000000000000000000000000000000000600052602260045260246000fd5b600060028204905060018216806200046b57607f821691505b6020821081141562000482576200048162000423565b5b50919050565b6113c580620004986000396000f3fe608060405234801561001057600080fd5b50600436106100885760003560e01c8063a90ae8871161005b578063a90ae887146100f1578063c45a01551461010d578063f2fde38b1461012b578063fc0e74d11461014757610088565b806306fdde031461008d57806312065fe0146100ab578063715018a6146100c95780638da5cb5b146100d3575b600080fd5b610095610151565b6040516100a291906109c4565b60405180910390f35b6100b36101df565b6040516100c091906109ff565b60405180910390f35b6100d1610263565b005b6100db6102eb565b6040516100e89190610a5b565b60405180910390f35b61010b60048036038101906101069190610beb565b610314565b005b610115610513565b6040516101229190610a5b565b60405180910390f35b61014560048036038101906101409190610c86565b610539565b005b61014f610631565b005b6002805461015e90610ce2565b80601f016020809104026020016040519081016040528092919081815260200182805461018a90610ce2565b80156101d75780601f106101ac576101008083540402835291602001916101d7565b820191906000526020600020905b8154815290600101906020018083116101ba57829003601f168201915b505050505081565b60006101e96106e8565b73ffffffffffffffffffffffffffffffffffffffff166102076102eb565b73ffffffffffffffffffffffffffffffffffffffff161461025d576040517f08c379a000000000000000000000000000000000000000000000000000000000815260040161025490610d60565b60405180910390fd5b47905090565b61026b6106e8565b73ffffffffffffffffffffffffffffffffffffffff166102896102eb565b73ffffffffffffffffffffffffffffffffffffffff16146102df576040517f08c379a00000000000000000000000000000000000000000000000000000000081526004016102d690610d60565b60405180910390fd5b6102e960006106f0565b565b60008060009054906101000a900473ffffffffffffffffffffffffffffffffffffffff16905090565b6001600083815260200190815260200160002060009054906101000a900460ff1615610375576040517f08c379a000000000000000000000000000000000000000000000000000000000815260040161036c90610dcc565b60405180910390fd5b600180600084815260200190815260200160002060006101000a81548160ff02191690831515021790555060006103de6103ad6106e8565b8585306040516020016103c39493929190610ebc565b604051602081830303815290604052805190602001206107b4565b90506103e86102eb565b73ffffffffffffffffffffffffffffffffffffffff1661041183836107e490919063ffffffff16565b73ffffffffffffffffffffffffffffffffffffffff1614610467576040517f08c379a000000000000000000000000000000000000000000000000000000000815260040161045e90610f56565b60405180910390fd5b61046f6106e8565b73ffffffffffffffffffffffffffffffffffffffff166108fc859081150290604051600060405180830381858888f193505050501580156104b4573d6000803e3d6000fd5b506104bd6106e8565b73ffffffffffffffffffffffffffffffffffffffff167f259518171e898fe96b33f374a520999c252ee3effda8db766b04eec5dbc8a4ad60024260405161050592919061100b565b60405180910390a250505050565b600360009054906101000a900473ffffffffffffffffffffffffffffffffffffffff1681565b6105416106e8565b73ffffffffffffffffffffffffffffffffffffffff1661055f6102eb565b73ffffffffffffffffffffffffffffffffffffffff16146105b5576040517f08c379a00000000000000000000000000000000000000000000000000000000081526004016105ac90610d60565b60405180910390fd5b600073ffffffffffffffffffffffffffffffffffffffff168173ffffffffffffffffffffffffffffffffffffffff161415610625576040517f08c379a000000000000000000000000000000000000000000000000000000000815260040161061c906110ad565b60405180910390fd5b61062e816106f0565b50565b6106396106e8565b73ffffffffffffffffffffffffffffffffffffffff16600360009054906101000a900473ffffffffffffffffffffffffffffffffffffffff1673ffffffffffffffffffffffffffffffffffffffff16146106c8576040517f08c379a00000000000000000000000000000000000000000000000000000000081526004016106bf90611119565b60405180910390fd5b6106d06102eb565b73ffffffffffffffffffffffffffffffffffffffff16ff5b600033905090565b60008060009054906101000a900473ffffffffffffffffffffffffffffffffffffffff169050816000806101000a81548173ffffffffffffffffffffffffffffffffffffffff021916908373ffffffffffffffffffffffffffffffffffffffff1602179055508173ffffffffffffffffffffffffffffffffffffffff168173ffffffffffffffffffffffffffffffffffffffff167f8be0079c531659141344cd1fd0a4f28419497f9722a3daafe3b4186f6b6457e060405160405180910390a35050565b6000816040516020016107c791906111bb565b604051602081830303815290604052805190602001209050919050565b6000806000806107f385610853565b9250925092506001868484846040516000815260200160405260405161081c949392919061120c565b6020604051602081039080840390855afa15801561083e573d6000803e3d6000fd5b50505060206040510351935050505092915050565b6000806000604184511461089c576040517f08c379a00000000000000000000000000000000000000000000000000000000081526004016108939061129d565b60405180910390fd5b602084015191506040840151905060ff6041850151169250601b8360ff1610156108d057601b836108cd91906112ec565b92505b601b8360ff1614806108e55750601c8360ff16145b610924576040517f08c379a000000000000000000000000000000000000000000000000000000000815260040161091b9061136f565b60405180910390fd5b9193909250565b600081519050919050565b600082825260208201905092915050565b60005b8381101561096557808201518184015260208101905061094a565b83811115610974576000848401525b50505050565b6000601f19601f8301169050919050565b60006109968261092b565b6109a08185610936565b93506109b0818560208601610947565b6109b98161097a565b840191505092915050565b600060208201905081810360008301526109de818461098b565b905092915050565b6000819050919050565b6109f9816109e6565b82525050565b6000602082019050610a1460008301846109f0565b92915050565b600073ffffffffffffffffffffffffffffffffffffffff82169050919050565b6000610a4582610a1a565b9050919050565b610a5581610a3a565b82525050565b6000602082019050610a706000830184610a4c565b92915050565b6000604051905090565b600080fd5b600080fd5b610a93816109e6565b8114610a9e57600080fd5b50565b600081359050610ab081610a8a565b92915050565b600080fd5b600080fd5b7f4e487b7100000000000000000000000000000000000000000000000000000000600052604160045260246000fd5b610af88261097a565b810181811067ffffffffffffffff82111715610b1757610b16610ac0565b5b80604052505050565b6000610b2a610a76565b9050610b368282610aef565b919050565b600067ffffffffffffffff821115610b5657610b55610ac0565b5b610b5f8261097a565b9050602081019050919050565b82818337600083830152505050565b6000610b8e610b8984610b3b565b610b20565b905082815260208101848484011115610baa57610ba9610abb565b5b610bb5848285610b6c565b509392505050565b600082601f830112610bd257610bd1610ab6565b5b8135610be2848260208601610b7b565b91505092915050565b600080600060608486031215610c0457610c03610a80565b5b6000610c1286828701610aa1565b9350506020610c2386828701610aa1565b925050604084013567ffffffffffffffff811115610c4457610c43610a85565b5b610c5086828701610bbd565b9150509250925092565b610c6381610a3a565b8114610c6e57600080fd5b50565b600081359050610c8081610c5a565b92915050565b600060208284031215610c9c57610c9b610a80565b5b6000610caa84828501610c71565b91505092915050565b7f4e487b7100000000000000000000000000000000000000000000000000000000600052602260045260246000fd5b60006002820490506001821680610cfa57607f821691505b60208210811415610d0e57610d0d610cb3565b5b50919050565b7f4f776e61626c653a2063616c6c6572206973206e6f7420746865206f776e6572600082015250565b6000610d4a602083610936565b9150610d5582610d14565b602082019050919050565b60006020820190508181036000830152610d7981610d3d565b9050919050565b7f436c61696d20616c726561647920646f6e650000000000000000000000000000600082015250565b6000610db6601283610936565b9150610dc182610d80565b602082019050919050565b60006020820190508181036000830152610de581610da9565b9050919050565b60008160601b9050919050565b6000610e0482610dec565b9050919050565b6000610e1682610df9565b9050919050565b610e2e610e2982610a3a565b610e0b565b82525050565b6000819050919050565b610e4f610e4a826109e6565b610e34565b82525050565b6000819050919050565b6000610e7a610e75610e7084610a1a565b610e55565b610a1a565b9050919050565b6000610e8c82610e5f565b9050919050565b6000610e9e82610e81565b9050919050565b610eb6610eb182610e93565b610e0b565b82525050565b6000610ec88287610e1d565b601482019150610ed88286610e3e565b602082019150610ee88285610e3e565b602082019150610ef88284610ea5565b60148201915081905095945050505050565b7f5369676e617475726520697320696e76616c6964205b6f776e65725d00000000600082015250565b6000610f40601c83610936565b9150610f4b82610f0a565b602082019050919050565b60006020820190508181036000830152610f6f81610f33565b9050919050565b60008190508160005260206000209050919050565b60008154610f9881610ce2565b610fa28186610936565b94506001821660008114610fbd5760018114610fcf57611002565b60ff1983168652602086019350611002565b610fd885610f76565b60005b83811015610ffa57815481890152600182019150602081019050610fdb565b808801955050505b50505092915050565b600060408201905081810360008301526110258185610f8b565b905061103460208301846109f0565b9392505050565b7f4f776e61626c653a206e6577206f776e657220697320746865207a65726f206160008201527f6464726573730000000000000000000000000000000000000000000000000000602082015250565b6000611097602683610936565b91506110a28261103b565b604082019050919050565b600060208201905081810360008301526110c68161108a565b9050919050565b7f43616c6c6572206973206e6f74207468652063726561746f7200000000000000600082015250565b6000611103601983610936565b915061110e826110cd565b602082019050919050565b60006020820190508181036000830152611132816110f6565b9050919050565b600081905092915050565b7f19457468657265756d205369676e6564204d6573736167653a0a333200000000600082015250565b600061117a601c83611139565b915061118582611144565b601c82019050919050565b6000819050919050565b6000819050919050565b6111b56111b082611190565b61119a565b82525050565b60006111c68261116d565b91506111d282846111a4565b60208201915081905092915050565b6111ea81611190565b82525050565b600060ff82169050919050565b611206816111f0565b82525050565b600060808201905061122160008301876111e1565b61122e60208301866111fd565b61123b60408301856111e1565b61124860608301846111e1565b95945050505050565b7f5369676e617475726520697320696e76616c6964205b6c656e6774685d000000600082015250565b6000611287601d83610936565b915061129282611251565b602082019050919050565b600060208201905081810360008301526112b68161127a565b9050919050565b7f4e487b7100000000000000000000000000000000000000000000000000000000600052601160045260246000fd5b60006112f7826111f0565b9150611302836111f0565b92508260ff03821115611318576113176112bd565b5b828201905092915050565b7f5369676e617475726520697320696e76616c6964205b666f726d61745d000000600082015250565b6000611359601d83610936565b915061136482611323565b602082019050919050565b600060208201905081810360008301526113888161134c565b905091905056fea2646970667358221220cd8a5ba604cb10fde54ff4b8f7125d17228be9a1f162d161a7ad5b035aab304964736f6c634300080c0033a2646970667358221220f9a9a24c5d9c6dda231767cd298c360c4d8a601862ac58658fd09328e41fdca264736f6c634300080c0033",
  "immutableReferences": {},
  "source": "// SPDX-License-Identifier: GPL-3.0\r\npragma solidity ^0.8.10;\r\n\r\nimport \"@openzeppelin/contracts/access/Ownable.sol\";\r\nimport \"./Micropayments.sol\";\r\n\r\ncontract MicropaymentsFactory is Ownable {\r\n    struct MicropaymentData {\r\n        address location;\r\n        string name;\r\n    }\r\n\r\n    Micropayments[] public contracts;\r\n    mapping(bytes32 => address) private nameToAddress;\r\n    mapping(address => uint256) private addressToIndex;\r\n\r\n    event MicropaymentsCreated(address indexed from, address indexed location, string name, uint256 createdAt, uint256 value);\r\n    event MicropaymentsDeleted(address indexed from, address indexed location);\r\n\r\n    function createMicropayment(string memory name) external payable onlyOwner {\r\n        bytes32 nameHash = keccak256(bytes(name));\r\n        require(nameToAddress[nameHash] == address(0), \"[Factory] Name already exists\");\r\n\r\n        Micropayments micropaymentContract = (new Micropayments){value: msg.value}(name);\r\n        micropaymentContract.transferOwnership(_msgSender());\r\n\r\n        addressToIndex[address(micropaymentContract)] = contracts.length;\r\n        nameToAddress[nameHash] = address(micropaymentContract);\r\n        contracts.push(micropaymentContract);\r\n\r\n        emit MicropaymentsCreated(_msgSender(), address(micropaymentContract), name, block.timestamp, msg.value);\r\n    }\r\n\r\n    function getMicropaymentsContracts() external view returns (MicropaymentData[] memory _contracts) {\r\n        _contracts = new MicropaymentData[](contracts.length);\r\n        for (uint256 i = 0; i < contracts.length; i++) {\r\n            _contracts[i].location = address(contracts[i]);\r\n            _contracts[i].name = Micropayments(contracts[i]).name();\r\n        }\r\n    }\r\n\r\n    function getMicropaymentsContractAddress(string memory name) external view returns (address) {\r\n        bytes32 nameHash = keccak256(bytes(name));\r\n        return nameToAddress[nameHash];\r\n    }\r\n\r\n    function deleteContract(address location) external onlyOwner {\r\n        uint256 contractIndex = addressToIndex[location];\r\n        Micropayments toDelete = Micropayments(contracts[contractIndex]);\r\n        // ToDO: Remove name from map to allow reuse\r\n        toDelete.shutdown();\r\n\r\n        contracts[contractIndex] = contracts[contracts.length - 1];\r\n        contracts.pop();\r\n\r\n        emit MicropaymentsDeleted(_msgSender(), location);\r\n    }\r\n}\r\n",
  "sourcePath": "C:\\SouthWorks\\Micropayments\\contracts\\MicropaymentsFactory.sol",
  "compiler": {
    "name": "solc",
    "version": "0.8.12+commit.f00d7308.Emscripten.clang"
  },
  "schemaVersion": "3.4.4",
  "updatedAt": "2022-03-02T02:53:55.511Z",
  "networkType": "ethereum",
  "devdoc": {
    "kind": "dev",
    "methods": {
      "owner()": {
        "details": "Returns the address of the current owner."
      },
      "renounceOwnership()": {
        "details": "Leaves the contract without owner. It will not be possible to call `onlyOwner` functions anymore. Can only be called by the current owner. NOTE: Renouncing ownership will leave the contract without an owner, thereby removing any functionality that is only available to the owner."
      },
      "transferOwnership(address)": {
        "details": "Transfers ownership of the contract to a new account (`newOwner`). Can only be called by the current owner."
      }
    },
    "version": 1
  },
  "userdoc": {
    "kind": "user",
    "methods": {},
    "version": 1
  }
}