{
  "contractName": "Micropayments",
  "abi": [
    {
      "inputs": [
        {
          "internalType": "string",
          "name": "_name",
          "type": "string"
        }
      ],
      "stateMutability": "payable",
      "type": "constructor"
    },
    {
      "anonymous": false,
      "inputs": [
        {
          "indexed": true,
          "internalType": "address",
          "name": "previousOwner",
          "type": "address"
        },
        {
          "indexed": true,
          "internalType": "address",
          "name": "newOwner",
          "type": "address"
        }
      ],
      "name": "OwnershipTransferred",
      "type": "event"
    },
    {
      "anonymous": false,
      "inputs": [
        {
          "indexed": true,
          "internalType": "address",
          "name": "from",
          "type": "address"
        },
        {
          "indexed": false,
          "internalType": "string",
          "name": "name",
          "type": "string"
        },
        {
          "indexed": false,
          "internalType": "uint256",
          "name": "at",
          "type": "uint256"
        }
      ],
      "name": "PaymentClaimed",
      "type": "event"
    },
    {
      "inputs": [],
      "name": "name",
      "outputs": [
        {
          "internalType": "string",
          "name": "",
          "type": "string"
        }
      ],
      "stateMutability": "view",
      "type": "function"
    },
    {
      "inputs": [],
      "name": "owner",
      "outputs": [
        {
          "internalType": "address",
          "name": "",
          "type": "address"
        }
      ],
      "stateMutability": "view",
      "type": "function"
    },
    {
      "inputs": [],
      "name": "renounceOwnership",
      "outputs": [],
      "stateMutability": "nonpayable",
      "type": "function"
    },
    {
      "inputs": [
        {
          "internalType": "address",
          "name": "newOwner",
          "type": "address"
        }
      ],
      "name": "transferOwnership",
      "outputs": [],
      "stateMutability": "nonpayable",
      "type": "function"
    },
    {
      "inputs": [
        {
          "internalType": "uint256",
          "name": "amount",
          "type": "uint256"
        },
        {
          "internalType": "uint256",
          "name": "nonce",
          "type": "uint256"
        },
        {
          "internalType": "bytes",
          "name": "signature",
          "type": "bytes"
        }
      ],
      "name": "claimPayment",
      "outputs": [],
      "stateMutability": "nonpayable",
      "type": "function"
    },
    {
      "inputs": [],
      "name": "getBalance",
      "outputs": [
        {
          "internalType": "uint256",
          "name": "",
          "type": "uint256"
        }
      ],
      "stateMutability": "view",
      "type": "function"
    },
    {
      "inputs": [],
      "name": "shutdown",
      "outputs": [],
      "stateMutability": "nonpayable",
      "type": "function"
    }
  ],
  "bytecode": "0x60806040526040516200173738038062001737833981810160405281019062000029919062000382565b620000496200003d6200006960201b60201c565b6200007160201b60201c565b80600290805190602001906200006192919062000135565b505062000438565b600033905090565b60008060009054906101000a900473ffffffffffffffffffffffffffffffffffffffff169050816000806101000a81548173ffffffffffffffffffffffffffffffffffffffff021916908373ffffffffffffffffffffffffffffffffffffffff1602179055508173ffffffffffffffffffffffffffffffffffffffff168173ffffffffffffffffffffffffffffffffffffffff167f8be0079c531659141344cd1fd0a4f28419497f9722a3daafe3b4186f6b6457e060405160405180910390a35050565b828054620001439062000402565b90600052602060002090601f016020900481019282620001675760008555620001b3565b82601f106200018257805160ff1916838001178555620001b3565b82800160010185558215620001b3579182015b82811115620001b257825182559160200191906001019062000195565b5b509050620001c29190620001c6565b5090565b5b80821115620001e1576000816000905550600101620001c7565b5090565b6000604051905090565b600080fd5b600080fd5b600080fd5b600080fd5b6000601f19601f8301169050919050565b7f4e487b7100000000000000000000000000000000000000000000000000000000600052604160045260246000fd5b6200024e8262000203565b810181811067ffffffffffffffff8211171562000270576200026f62000214565b5b80604052505050565b600062000285620001e5565b905062000293828262000243565b919050565b600067ffffffffffffffff821115620002b657620002b562000214565b5b620002c18262000203565b9050602081019050919050565b60005b83811015620002ee578082015181840152602081019050620002d1565b83811115620002fe576000848401525b50505050565b60006200031b620003158462000298565b62000279565b9050828152602081018484840111156200033a5762000339620001fe565b5b62000347848285620002ce565b509392505050565b600082601f830112620003675762000366620001f9565b5b81516200037984826020860162000304565b91505092915050565b6000602082840312156200039b576200039a620001ef565b5b600082015167ffffffffffffffff811115620003bc57620003bb620001f4565b5b620003ca848285016200034f565b91505092915050565b7f4e487b7100000000000000000000000000000000000000000000000000000000600052602260045260246000fd5b600060028204905060018216806200041b57607f821691505b60208210811415620004325762000431620003d3565b5b50919050565b6112ef80620004486000396000f3fe608060405234801561001057600080fd5b506004361061007d5760003560e01c80638da5cb5b1161005b5780638da5cb5b146100c8578063a90ae887146100e6578063f2fde38b14610102578063fc0e74d11461011e5761007d565b806306fdde031461008257806312065fe0146100a0578063715018a6146100be575b600080fd5b61008a610128565b604051610097919061095a565b60405180910390f35b6100a86101b6565b6040516100b59190610995565b60405180910390f35b6100c661023a565b005b6100d06102c2565b6040516100dd91906109f1565b60405180910390f35b61010060048036038101906100fb9190610b81565b6102eb565b005b61011c60048036038101906101179190610c1c565b6104ea565b005b6101266105e2565b005b6002805461013590610c78565b80601f016020809104026020016040519081016040528092919081815260200182805461016190610c78565b80156101ae5780601f10610183576101008083540402835291602001916101ae565b820191906000526020600020905b81548152906001019060200180831161019157829003601f168201915b505050505081565b60006101c061067e565b73ffffffffffffffffffffffffffffffffffffffff166101de6102c2565b73ffffffffffffffffffffffffffffffffffffffff1614610234576040517f08c379a000000000000000000000000000000000000000000000000000000000815260040161022b90610cf6565b60405180910390fd5b47905090565b61024261067e565b73ffffffffffffffffffffffffffffffffffffffff166102606102c2565b73ffffffffffffffffffffffffffffffffffffffff16146102b6576040517f08c379a00000000000000000000000000000000000000000000000000000000081526004016102ad90610cf6565b60405180910390fd5b6102c06000610686565b565b60008060009054906101000a900473ffffffffffffffffffffffffffffffffffffffff16905090565b6001600083815260200190815260200160002060009054906101000a900460ff161561034c576040517f08c379a000000000000000000000000000000000000000000000000000000000815260040161034390610d62565b60405180910390fd5b600180600084815260200190815260200160002060006101000a81548160ff02191690831515021790555060006103b561038461067e565b85853060405160200161039a9493929190610e52565b6040516020818303038152906040528051906020012061074a565b90506103bf6102c2565b73ffffffffffffffffffffffffffffffffffffffff166103e8838361077a90919063ffffffff16565b73ffffffffffffffffffffffffffffffffffffffff161461043e576040517f08c379a000000000000000000000000000000000000000000000000000000000815260040161043590610eec565b60405180910390fd5b61044661067e565b73ffffffffffffffffffffffffffffffffffffffff166108fc859081150290604051600060405180830381858888f1935050505015801561048b573d6000803e3d6000fd5b5061049461067e565b73ffffffffffffffffffffffffffffffffffffffff167f259518171e898fe96b33f374a520999c252ee3effda8db766b04eec5dbc8a4ad6002426040516104dc929190610fa1565b60405180910390a250505050565b6104f261067e565b73ffffffffffffffffffffffffffffffffffffffff166105106102c2565b73ffffffffffffffffffffffffffffffffffffffff1614610566576040517f08c379a000000000000000000000000000000000000000000000000000000000815260040161055d90610cf6565b60405180910390fd5b600073ffffffffffffffffffffffffffffffffffffffff168173ffffffffffffffffffffffffffffffffffffffff1614156105d6576040517f08c379a00000000000000000000000000000000000000000000000000000000081526004016105cd90611043565b60405180910390fd5b6105df81610686565b50565b6105ea61067e565b73ffffffffffffffffffffffffffffffffffffffff166106086102c2565b73ffffffffffffffffffffffffffffffffffffffff161461065e576040517f08c379a000000000000000000000000000000000000000000000000000000000815260040161065590610cf6565b60405180910390fd5b6106666102c2565b73ffffffffffffffffffffffffffffffffffffffff16ff5b600033905090565b60008060009054906101000a900473ffffffffffffffffffffffffffffffffffffffff169050816000806101000a81548173ffffffffffffffffffffffffffffffffffffffff021916908373ffffffffffffffffffffffffffffffffffffffff1602179055508173ffffffffffffffffffffffffffffffffffffffff168173ffffffffffffffffffffffffffffffffffffffff167f8be0079c531659141344cd1fd0a4f28419497f9722a3daafe3b4186f6b6457e060405160405180910390a35050565b60008160405160200161075d91906110e5565b604051602081830303815290604052805190602001209050919050565b600080600080610789856107e9565b925092509250600186848484604051600081526020016040526040516107b29493929190611136565b6020604051602081039080840390855afa1580156107d4573d6000803e3d6000fd5b50505060206040510351935050505092915050565b60008060006041845114610832576040517f08c379a0000000000000000000000000000000000000000000000000000000008152600401610829906111c7565b60405180910390fd5b602084015191506040840151905060ff6041850151169250601b8360ff16101561086657601b836108639190611216565b92505b601b8360ff16148061087b5750601c8360ff16145b6108ba576040517f08c379a00000000000000000000000000000000000000000000000000000000081526004016108b190611299565b60405180910390fd5b9193909250565b600081519050919050565b600082825260208201905092915050565b60005b838110156108fb5780820151818401526020810190506108e0565b8381111561090a576000848401525b50505050565b6000601f19601f8301169050919050565b600061092c826108c1565b61093681856108cc565b93506109468185602086016108dd565b61094f81610910565b840191505092915050565b600060208201905081810360008301526109748184610921565b905092915050565b6000819050919050565b61098f8161097c565b82525050565b60006020820190506109aa6000830184610986565b92915050565b600073ffffffffffffffffffffffffffffffffffffffff82169050919050565b60006109db826109b0565b9050919050565b6109eb816109d0565b82525050565b6000602082019050610a0660008301846109e2565b92915050565b6000604051905090565b600080fd5b600080fd5b610a298161097c565b8114610a3457600080fd5b50565b600081359050610a4681610a20565b92915050565b600080fd5b600080fd5b7f4e487b7100000000000000000000000000000000000000000000000000000000600052604160045260246000fd5b610a8e82610910565b810181811067ffffffffffffffff82111715610aad57610aac610a56565b5b80604052505050565b6000610ac0610a0c565b9050610acc8282610a85565b919050565b600067ffffffffffffffff821115610aec57610aeb610a56565b5b610af582610910565b9050602081019050919050565b82818337600083830152505050565b6000610b24610b1f84610ad1565b610ab6565b905082815260208101848484011115610b4057610b3f610a51565b5b610b4b848285610b02565b509392505050565b600082601f830112610b6857610b67610a4c565b5b8135610b78848260208601610b11565b91505092915050565b600080600060608486031215610b9a57610b99610a16565b5b6000610ba886828701610a37565b9350506020610bb986828701610a37565b925050604084013567ffffffffffffffff811115610bda57610bd9610a1b565b5b610be686828701610b53565b9150509250925092565b610bf9816109d0565b8114610c0457600080fd5b50565b600081359050610c1681610bf0565b92915050565b600060208284031215610c3257610c31610a16565b5b6000610c4084828501610c07565b91505092915050565b7f4e487b7100000000000000000000000000000000000000000000000000000000600052602260045260246000fd5b60006002820490506001821680610c9057607f821691505b60208210811415610ca457610ca3610c49565b5b50919050565b7f4f776e61626c653a2063616c6c6572206973206e6f7420746865206f776e6572600082015250565b6000610ce06020836108cc565b9150610ceb82610caa565b602082019050919050565b60006020820190508181036000830152610d0f81610cd3565b9050919050565b7f436c61696d20616c726561647920646f6e650000000000000000000000000000600082015250565b6000610d4c6012836108cc565b9150610d5782610d16565b602082019050919050565b60006020820190508181036000830152610d7b81610d3f565b9050919050565b60008160601b9050919050565b6000610d9a82610d82565b9050919050565b6000610dac82610d8f565b9050919050565b610dc4610dbf826109d0565b610da1565b82525050565b6000819050919050565b610de5610de08261097c565b610dca565b82525050565b6000819050919050565b6000610e10610e0b610e06846109b0565b610deb565b6109b0565b9050919050565b6000610e2282610df5565b9050919050565b6000610e3482610e17565b9050919050565b610e4c610e4782610e29565b610da1565b82525050565b6000610e5e8287610db3565b601482019150610e6e8286610dd4565b602082019150610e7e8285610dd4565b602082019150610e8e8284610e3b565b60148201915081905095945050505050565b7f5369676e617475726520697320696e76616c6964205b6f776e65725d00000000600082015250565b6000610ed6601c836108cc565b9150610ee182610ea0565b602082019050919050565b60006020820190508181036000830152610f0581610ec9565b9050919050565b60008190508160005260206000209050919050565b60008154610f2e81610c78565b610f3881866108cc565b94506001821660008114610f535760018114610f6557610f98565b60ff1983168652602086019350610f98565b610f6e85610f0c565b60005b83811015610f9057815481890152600182019150602081019050610f71565b808801955050505b50505092915050565b60006040820190508181036000830152610fbb8185610f21565b9050610fca6020830184610986565b9392505050565b7f4f776e61626c653a206e6577206f776e657220697320746865207a65726f206160008201527f6464726573730000000000000000000000000000000000000000000000000000602082015250565b600061102d6026836108cc565b915061103882610fd1565b604082019050919050565b6000602082019050818103600083015261105c81611020565b9050919050565b600081905092915050565b7f19457468657265756d205369676e6564204d6573736167653a0a333200000000600082015250565b60006110a4601c83611063565b91506110af8261106e565b601c82019050919050565b6000819050919050565b6000819050919050565b6110df6110da826110ba565b6110c4565b82525050565b60006110f082611097565b91506110fc82846110ce565b60208201915081905092915050565b611114816110ba565b82525050565b600060ff82169050919050565b6111308161111a565b82525050565b600060808201905061114b600083018761110b565b6111586020830186611127565b611165604083018561110b565b611172606083018461110b565b95945050505050565b7f5369676e617475726520697320696e76616c6964205b6c656e6774685d000000600082015250565b60006111b1601d836108cc565b91506111bc8261117b565b602082019050919050565b600060208201905081810360008301526111e0816111a4565b9050919050565b7f4e487b7100000000000000000000000000000000000000000000000000000000600052601160045260246000fd5b60006112218261111a565b915061122c8361111a565b92508260ff03821115611242576112416111e7565b5b828201905092915050565b7f5369676e617475726520697320696e76616c6964205b666f726d61745d000000600082015250565b6000611283601d836108cc565b915061128e8261124d565b602082019050919050565b600060208201905081810360008301526112b281611276565b905091905056fea26469706673582212209479f3ce85e74b7fe4721a39341cf2f6d94bc58260a8644ae17bfed09976ac7464736f6c634300080c0033",
  "immutableReferences": {},
  "source": "// SPDX-License-Identifier: GPL-3.0\npragma solidity ^0.8.10;\n\nimport \"@openzeppelin/contracts/access/Ownable.sol\";\nimport \"./SignUtils.sol\";\n\ncontract Micropayments is Ownable {\n    using SignUtils for bytes32;\n    using SignUtils for bytes;\n    mapping(uint256 => bool) private usedNonces;\n    string public name;\n\n    event PaymentClaimed(address indexed from, string name, uint256 at);\n\n    constructor(string memory _name) payable {\n        name = _name;\n    }\n\n    function claimPayment(\n        uint256 amount,\n        uint256 nonce,\n        bytes memory signature\n    ) external {\n        require(!usedNonces[nonce], \"Claim already done\");\n        usedNonces[nonce] = true;\n        bytes32 message = keccak256(abi.encodePacked(_msgSender(), amount, nonce, this)).prefixed();\n        require(message.recoverSigner(signature) == owner(), \"Signature is invalid [owner]\");\n        payable(_msgSender()).transfer(amount);\n        emit PaymentClaimed(_msgSender(), name, block.timestamp);\n    }\n\n    function getBalance() external view onlyOwner returns (uint256) {\n        return address(this).balance;\n    }\n\n    function shutdown() external onlyOwner {\n        selfdestruct(payable(owner()));\n    }\n}\n",
  "sourcePath": "C:\\SouthWorks\\Micropayments\\contracts\\Micropayments.sol",
  "compiler": {
    "name": "solc",
    "version": "0.8.12+commit.f00d7308.Emscripten.clang"
  },
  "schemaVersion": "3.4.4",
  "updatedAt": "2022-02-27T19:43:08.770Z",
  "networkType": "ethereum",
  "devdoc": {
    "kind": "dev",
    "methods": {
      "owner()": {
        "details": "Returns the address of the current owner."
      },
      "renounceOwnership()": {
        "details": "Leaves the contract without owner. It will not be possible to call `onlyOwner` functions anymore. Can only be called by the current owner. NOTE: Renouncing ownership will leave the contract without an owner, thereby removing any functionality that is only available to the owner."
      },
      "transferOwnership(address)": {
        "details": "Transfers ownership of the contract to a new account (`newOwner`). Can only be called by the current owner."
      }
    },
    "version": 1
  },
  "userdoc": {
    "kind": "user",
    "methods": {},
    "version": 1
  }
}