{
  "contractName": "MicropaymentsFactory",
  "abi": [
    {
      "anonymous": false,
      "inputs": [
        {
          "indexed": true,
          "internalType": "address",
          "name": "from",
          "type": "address"
        },
        {
          "indexed": true,
          "internalType": "address",
          "name": "location",
          "type": "address"
        },
        {
          "indexed": false,
          "internalType": "string",
          "name": "name",
          "type": "string"
        },
        {
          "indexed": false,
          "internalType": "uint256",
          "name": "createdAt",
          "type": "uint256"
        },
        {
          "indexed": false,
          "internalType": "uint256",
          "name": "value",
          "type": "uint256"
        }
      ],
      "name": "MicropaymentsCreated",
      "type": "event"
    },
    {
      "anonymous": false,
      "inputs": [
        {
          "indexed": true,
          "internalType": "address",
          "name": "from",
          "type": "address"
        },
        {
          "indexed": true,
          "internalType": "address",
          "name": "location",
          "type": "address"
        }
      ],
      "name": "MicropaymentsDeleted",
      "type": "event"
    },
    {
      "anonymous": false,
      "inputs": [
        {
          "indexed": true,
          "internalType": "address",
          "name": "previousOwner",
          "type": "address"
        },
        {
          "indexed": true,
          "internalType": "address",
          "name": "newOwner",
          "type": "address"
        }
      ],
      "name": "OwnershipTransferred",
      "type": "event"
    },
    {
      "inputs": [
        {
          "internalType": "uint256",
          "name": "",
          "type": "uint256"
        }
      ],
      "name": "contracts",
      "outputs": [
        {
          "internalType": "contract Micropayments",
          "name": "",
          "type": "address"
        }
      ],
      "stateMutability": "view",
      "type": "function",
      "constant": true
    },
    {
      "inputs": [],
      "name": "owner",
      "outputs": [
        {
          "internalType": "address",
          "name": "",
          "type": "address"
        }
      ],
      "stateMutability": "view",
      "type": "function",
      "constant": true
    },
    {
      "inputs": [],
      "name": "renounceOwnership",
      "outputs": [],
      "stateMutability": "nonpayable",
      "type": "function"
    },
    {
      "inputs": [
        {
          "internalType": "address",
          "name": "newOwner",
          "type": "address"
        }
      ],
      "name": "transferOwnership",
      "outputs": [],
      "stateMutability": "nonpayable",
      "type": "function"
    },
    {
      "inputs": [
        {
          "internalType": "string",
          "name": "name",
          "type": "string"
        }
      ],
      "name": "createMicropayment",
      "outputs": [],
      "stateMutability": "payable",
      "type": "function",
      "payable": true
    },
    {
      "inputs": [],
      "name": "getMicropaymentsContracts",
      "outputs": [
        {
          "components": [
            {
              "internalType": "address",
              "name": "location",
              "type": "address"
            },
            {
              "internalType": "string",
              "name": "name",
              "type": "string"
            }
          ],
          "internalType": "struct MicropaymentsFactory.MicropaymentData[]",
          "name": "_contracts",
          "type": "tuple[]"
        }
      ],
      "stateMutability": "view",
      "type": "function",
      "constant": true
    },
    {
      "inputs": [
        {
          "internalType": "string",
          "name": "name",
          "type": "string"
        }
      ],
      "name": "getMicropaymentsContractAddress",
      "outputs": [
        {
          "internalType": "address",
          "name": "",
          "type": "address"
        }
      ],
      "stateMutability": "view",
      "type": "function",
      "constant": true
    },
    {
      "inputs": [
        {
          "internalType": "address",
          "name": "location",
          "type": "address"
        }
      ],
      "name": "deleteContract",
      "outputs": [],
      "stateMutability": "nonpayable",
      "type": "function"
    }
  ],
  "bytecode": "0x608060405234801561001057600080fd5b5061002d61002261003260201b60201c565b61003a60201b60201c565b6100fe565b600033905090565b60008060009054906101000a900473ffffffffffffffffffffffffffffffffffffffff169050816000806101000a81548173ffffffffffffffffffffffffffffffffffffffff021916908373ffffffffffffffffffffffffffffffffffffffff1602179055508173ffffffffffffffffffffffffffffffffffffffff168173ffffffffffffffffffffffffffffffffffffffff167f8be0079c531659141344cd1fd0a4f28419497f9722a3daafe3b4186f6b6457e060405160405180910390a35050565b6131118061010d6000396000f3fe608060405260043610620000865760003560e01c8063715018a61162000055578063715018a6146200014d5780638da5cb5b1462000167578063a4cdac4a1462000197578063f2fde38b14620001db5762000086565b80631d025e65146200008b5780632637a47714620000bb578063361f636114620000e9578063474da79a1462000109575b600080fd5b3480156200009857600080fd5b50620000a362000209565b604051620000b29190620010f6565b60405180910390f35b348015620000c857600080fd5b50620000e76004803603810190620000e191906200115f565b6200040b565b005b620001076004803603810190620001019190620012e2565b6200084a565b005b3480156200011657600080fd5b506200013560048036038101906200012f91906200136e565b62000bac565b6040516200014491906200140b565b60405180910390f35b3480156200015a57600080fd5b506200016562000bec565b005b3480156200017457600080fd5b506200017f62000c7d565b6040516200018e919062001439565b60405180910390f35b348015620001a457600080fd5b50620001c36004803603810190620001bd9190620012e2565b62000ca6565b604051620001d2919062001439565b60405180910390f35b348015620001e857600080fd5b506200020760048036038101906200020191906200115f565b62000cef565b005b606060018054905067ffffffffffffffff8111156200022d576200022c6200119b565b5b6040519080825280602002602001820160405280156200026a57816020015b6200025662000ebe565b8152602001906001900390816200024c5790505b50905060005b60018054905081101562000407576001818154811062000295576200029462001456565b5b9060005260206000200160009054906101000a900473ffffffffffffffffffffffffffffffffffffffff16828281518110620002d657620002d562001456565b5b60200260200101516000019073ffffffffffffffffffffffffffffffffffffffff16908173ffffffffffffffffffffffffffffffffffffffff1681525050600181815481106200032b576200032a62001456565b5b9060005260206000200160009054906101000a900473ffffffffffffffffffffffffffffffffffffffff1673ffffffffffffffffffffffffffffffffffffffff166306fdde036040518163ffffffff1660e01b8152600401600060405180830381865afa158015620003a1573d6000803e3d6000fd5b505050506040513d6000823e3d601f19601f82011682018060405250810190620003cc919062001503565b828281518110620003e257620003e162001456565b5b6020026020010151602001819052508080620003fe9062001583565b91505062000270565b5090565b6200041562000df2565b73ffffffffffffffffffffffffffffffffffffffff166200043562000c7d565b73ffffffffffffffffffffffffffffffffffffffff16146200048e576040517f08c379a0000000000000000000000000000000000000000000000000000000008152600401620004859062001631565b60405180910390fd5b6000600360008373ffffffffffffffffffffffffffffffffffffffff1673ffffffffffffffffffffffffffffffffffffffff168152602001908152602001600020549050600060018281548110620004eb57620004ea62001456565b5b9060005260206000200160009054906101000a900473ffffffffffffffffffffffffffffffffffffffff16905060008173ffffffffffffffffffffffffffffffffffffffff166306fdde036040518163ffffffff1660e01b8152600401600060405180830381865afa15801562000566573d6000803e3d6000fd5b505050506040513d6000823e3d601f19601f8201168201806040525081019062000591919062001503565b80519060200120905060006002600083815260200190815260200160002060006101000a81548173ffffffffffffffffffffffffffffffffffffffff021916908373ffffffffffffffffffffffffffffffffffffffff1602179055508173ffffffffffffffffffffffffffffffffffffffff1663fc0e74d16040518163ffffffff1660e01b8152600401600060405180830381600087803b1580156200063657600080fd5b505af11580156200064b573d6000803e3d6000fd5b505050508260036000600180808054905062000668919062001653565b815481106200067c576200067b62001456565b5b9060005260206000200160009054906101000a900473ffffffffffffffffffffffffffffffffffffffff1673ffffffffffffffffffffffffffffffffffffffff1673ffffffffffffffffffffffffffffffffffffffff168152602001908152602001600020819055506001808080549050620006f9919062001653565b815481106200070d576200070c62001456565b5b9060005260206000200160009054906101000a900473ffffffffffffffffffffffffffffffffffffffff16600184815481106200074f576200074e62001456565b5b9060005260206000200160006101000a81548173ffffffffffffffffffffffffffffffffffffffff021916908373ffffffffffffffffffffffffffffffffffffffff1602179055506001805480620007ac57620007ab6200168e565b5b6001900381819060005260206000200160006101000a81549073ffffffffffffffffffffffffffffffffffffffff021916905590558373ffffffffffffffffffffffffffffffffffffffff166200080262000df2565b73ffffffffffffffffffffffffffffffffffffffff167fb84299a14bbfe4d2d0b71eab16c82f356c8489fa2cbf3c1993eef272d5e2681a60405160405180910390a350505050565b6200085462000df2565b73ffffffffffffffffffffffffffffffffffffffff166200087462000c7d565b73ffffffffffffffffffffffffffffffffffffffff1614620008cd576040517f08c379a0000000000000000000000000000000000000000000000000000000008152600401620008c49062001631565b60405180910390fd5b600081805190602001209050600073ffffffffffffffffffffffffffffffffffffffff166002600083815260200190815260200160002060009054906101000a900473ffffffffffffffffffffffffffffffffffffffff1673ffffffffffffffffffffffffffffffffffffffff16146200097e576040517f08c379a000000000000000000000000000000000000000000000000000000000815260040162000975906200170d565b60405180910390fd5b60003483604051620009909062000eee565b6200099c919062001770565b6040518091039082f0905080158015620009ba573d6000803e3d6000fd5b5090508073ffffffffffffffffffffffffffffffffffffffff1663f2fde38b620009e362000df2565b6040518263ffffffff1660e01b815260040162000a01919062001439565b600060405180830381600087803b15801562000a1c57600080fd5b505af115801562000a31573d6000803e3d6000fd5b50505050600180549050600360008373ffffffffffffffffffffffffffffffffffffffff1673ffffffffffffffffffffffffffffffffffffffff16815260200190815260200160002081905550806002600084815260200190815260200160002060006101000a81548173ffffffffffffffffffffffffffffffffffffffff021916908373ffffffffffffffffffffffffffffffffffffffff1602179055506001819080600181540180825580915050600190039060005260206000200160009091909190916101000a81548173ffffffffffffffffffffffffffffffffffffffff021916908373ffffffffffffffffffffffffffffffffffffffff1602179055508073ffffffffffffffffffffffffffffffffffffffff1662000b5462000df2565b73ffffffffffffffffffffffffffffffffffffffff167f0b42296e41ce278a9dcd91e4d5490472056339c7779b5c0d3f5e9706af735d4485423460405162000b9f93929190620017a5565b60405180910390a3505050565b6001818154811062000bbd57600080fd5b906000526020600020016000915054906101000a900473ffffffffffffffffffffffffffffffffffffffff1681565b62000bf662000df2565b73ffffffffffffffffffffffffffffffffffffffff1662000c1662000c7d565b73ffffffffffffffffffffffffffffffffffffffff161462000c6f576040517f08c379a000000000000000000000000000000000000000000000000000000000815260040162000c669062001631565b60405180910390fd5b62000c7b600062000dfa565b565b60008060009054906101000a900473ffffffffffffffffffffffffffffffffffffffff16905090565b600080828051906020012090506002600082815260200190815260200160002060009054906101000a900473ffffffffffffffffffffffffffffffffffffffff16915050919050565b62000cf962000df2565b73ffffffffffffffffffffffffffffffffffffffff1662000d1962000c7d565b73ffffffffffffffffffffffffffffffffffffffff161462000d72576040517f08c379a000000000000000000000000000000000000000000000000000000000815260040162000d699062001631565b60405180910390fd5b600073ffffffffffffffffffffffffffffffffffffffff168173ffffffffffffffffffffffffffffffffffffffff160362000de4576040517f08c379a000000000000000000000000000000000000000000000000000000000815260040162000ddb906200185f565b60405180910390fd5b62000def8162000dfa565b50565b600033905090565b60008060009054906101000a900473ffffffffffffffffffffffffffffffffffffffff169050816000806101000a81548173ffffffffffffffffffffffffffffffffffffffff021916908373ffffffffffffffffffffffffffffffffffffffff1602179055508173ffffffffffffffffffffffffffffffffffffffff168173ffffffffffffffffffffffffffffffffffffffff167f8be0079c531659141344cd1fd0a4f28419497f9722a3daafe3b4186f6b6457e060405160405180910390a35050565b6040518060400160405280600073ffffffffffffffffffffffffffffffffffffffff168152602001606081525090565b61185a806200188283390190565b600081519050919050565b600082825260208201905092915050565b6000819050602082019050919050565b600073ffffffffffffffffffffffffffffffffffffffff82169050919050565b600062000f558262000f28565b9050919050565b62000f678162000f48565b82525050565b600081519050919050565b600082825260208201905092915050565b60005b8381101562000fa957808201518184015260208101905062000f8c565b8381111562000fb9576000848401525b50505050565b6000601f19601f8301169050919050565b600062000fdd8262000f6d565b62000fe9818562000f78565b935062000ffb81856020860162000f89565b620010068162000fbf565b840191505092915050565b60006040830160008301516200102b600086018262000f5c565b506020830151848203602086015262001045828262000fd0565b9150508091505092915050565b600062001060838362001011565b905092915050565b6000602082019050919050565b6000620010828262000efc565b6200108e818562000f07565b935083602082028501620010a28562000f18565b8060005b85811015620010e45784840389528151620010c2858262001052565b9450620010cf8362001068565b925060208a01995050600181019050620010a6565b50829750879550505050505092915050565b6000602082019050818103600083015262001112818462001075565b905092915050565b6000604051905090565b600080fd5b600080fd5b620011398162000f48565b81146200114557600080fd5b50565b60008135905062001159816200112e565b92915050565b60006020828403121562001178576200117762001124565b5b6000620011888482850162001148565b91505092915050565b600080fd5b600080fd5b7f4e487b7100000000000000000000000000000000000000000000000000000000600052604160045260246000fd5b620011d58262000fbf565b810181811067ffffffffffffffff82111715620011f757620011f66200119b565b5b80604052505050565b60006200120c6200111a565b90506200121a8282620011ca565b919050565b600067ffffffffffffffff8211156200123d576200123c6200119b565b5b620012488262000fbf565b9050602081019050919050565b82818337600083830152505050565b60006200127b62001275846200121f565b62001200565b9050828152602081018484840111156200129a576200129962001196565b5b620012a784828562001255565b509392505050565b600082601f830112620012c757620012c662001191565b5b8135620012d984826020860162001264565b91505092915050565b600060208284031215620012fb57620012fa62001124565b5b600082013567ffffffffffffffff8111156200131c576200131b62001129565b5b6200132a84828501620012af565b91505092915050565b6000819050919050565b620013488162001333565b81146200135457600080fd5b50565b60008135905062001368816200133d565b92915050565b60006020828403121562001387576200138662001124565b5b6000620013978482850162001357565b91505092915050565b6000819050919050565b6000620013cb620013c5620013bf8462000f28565b620013a0565b62000f28565b9050919050565b6000620013df82620013aa565b9050919050565b6000620013f382620013d2565b9050919050565b6200140581620013e6565b82525050565b6000602082019050620014226000830184620013fa565b92915050565b620014338162000f48565b82525050565b600060208201905062001450600083018462001428565b92915050565b7f4e487b7100000000000000000000000000000000000000000000000000000000600052603260045260246000fd5b60006200149c62001496846200121f565b62001200565b905082815260208101848484011115620014bb57620014ba62001196565b5b620014c884828562000f89565b509392505050565b600082601f830112620014e857620014e762001191565b5b8151620014fa84826020860162001485565b91505092915050565b6000602082840312156200151c576200151b62001124565b5b600082015167ffffffffffffffff8111156200153d576200153c62001129565b5b6200154b84828501620014d0565b91505092915050565b7f4e487b7100000000000000000000000000000000000000000000000000000000600052601160045260246000fd5b6000620015908262001333565b91507fffffffffffffffffffffffffffffffffffffffffffffffffffffffffffffffff8203620015c557620015c462001554565b5b600182019050919050565b600082825260208201905092915050565b7f4f776e61626c653a2063616c6c6572206973206e6f7420746865206f776e6572600082015250565b600062001619602083620015d0565b91506200162682620015e1565b602082019050919050565b600060208201905081810360008301526200164c816200160a565b9050919050565b6000620016608262001333565b91506200166d8362001333565b92508282101562001683576200168262001554565b5b828203905092915050565b7f4e487b7100000000000000000000000000000000000000000000000000000000600052603160045260246000fd5b7f5b466163746f72795d204e616d6520616c726561647920657869737473000000600082015250565b6000620016f5601d83620015d0565b91506200170282620016bd565b602082019050919050565b600060208201905081810360008301526200172881620016e6565b9050919050565b60006200173c8262000f6d565b620017488185620015d0565b93506200175a81856020860162000f89565b620017658162000fbf565b840191505092915050565b600060208201905081810360008301526200178c81846200172f565b905092915050565b6200179f8162001333565b82525050565b60006060820190508181036000830152620017c181866200172f565b9050620017d2602083018562001794565b620017e1604083018462001794565b949350505050565b7f4f776e61626c653a206e6577206f776e657220697320746865207a65726f206160008201527f6464726573730000000000000000000000000000000000000000000000000000602082015250565b600062001847602683620015d0565b91506200185482620017e9565b604082019050919050565b600060208201905081810360008301526200187a8162001838565b905091905056fe60806040526040516200185a3803806200185a8339818101604052810190620000299190620003d2565b620000496200003d620000b960201b60201c565b620000c160201b60201c565b80600290805190602001906200006192919062000185565b5062000072620000b960201b60201c565b600360006101000a81548173ffffffffffffffffffffffffffffffffffffffff021916908373ffffffffffffffffffffffffffffffffffffffff1602179055505062000487565b600033905090565b60008060009054906101000a900473ffffffffffffffffffffffffffffffffffffffff169050816000806101000a81548173ffffffffffffffffffffffffffffffffffffffff021916908373ffffffffffffffffffffffffffffffffffffffff1602179055508173ffffffffffffffffffffffffffffffffffffffff168173ffffffffffffffffffffffffffffffffffffffff167f8be0079c531659141344cd1fd0a4f28419497f9722a3daafe3b4186f6b6457e060405160405180910390a35050565b828054620001939062000452565b90600052602060002090601f016020900481019282620001b7576000855562000203565b82601f10620001d257805160ff191683800117855562000203565b8280016001018555821562000203579182015b8281111562000202578251825591602001919060010190620001e5565b5b50905062000212919062000216565b5090565b5b808211156200023157600081600090555060010162000217565b5090565b6000604051905090565b600080fd5b600080fd5b600080fd5b600080fd5b6000601f19601f8301169050919050565b7f4e487b7100000000000000000000000000000000000000000000000000000000600052604160045260246000fd5b6200029e8262000253565b810181811067ffffffffffffffff82111715620002c057620002bf62000264565b5b80604052505050565b6000620002d562000235565b9050620002e3828262000293565b919050565b600067ffffffffffffffff82111562000306576200030562000264565b5b620003118262000253565b9050602081019050919050565b60005b838110156200033e57808201518184015260208101905062000321565b838111156200034e576000848401525b50505050565b60006200036b6200036584620002e8565b620002c9565b9050828152602081018484840111156200038a57620003896200024e565b5b620003978482856200031e565b509392505050565b600082601f830112620003b757620003b662000249565b5b8151620003c984826020860162000354565b91505092915050565b600060208284031215620003eb57620003ea6200023f565b5b600082015167ffffffffffffffff8111156200040c576200040b62000244565b5b6200041a848285016200039f565b91505092915050565b7f4e487b7100000000000000000000000000000000000000000000000000000000600052602260045260246000fd5b600060028204905060018216806200046b57607f821691505b60208210810362000481576200048062000423565b5b50919050565b6113c380620004976000396000f3fe608060405234801561001057600080fd5b50600436106100885760003560e01c8063a90ae8871161005b578063a90ae887146100f1578063c45a01551461010d578063f2fde38b1461012b578063fc0e74d11461014757610088565b806306fdde031461008d57806312065fe0146100ab578063715018a6146100c95780638da5cb5b146100d3575b600080fd5b610095610151565b6040516100a291906109c3565b60405180910390f35b6100b36101df565b6040516100c091906109fe565b60405180910390f35b6100d1610263565b005b6100db6102eb565b6040516100e89190610a5a565b60405180910390f35b61010b60048036038101906101069190610bea565b610314565b005b610115610513565b6040516101229190610a5a565b60405180910390f35b61014560048036038101906101409190610c85565b610539565b005b61014f610630565b005b6002805461015e90610ce1565b80601f016020809104026020016040519081016040528092919081815260200182805461018a90610ce1565b80156101d75780601f106101ac576101008083540402835291602001916101d7565b820191906000526020600020905b8154815290600101906020018083116101ba57829003601f168201915b505050505081565b60006101e96106e7565b73ffffffffffffffffffffffffffffffffffffffff166102076102eb565b73ffffffffffffffffffffffffffffffffffffffff161461025d576040517f08c379a000000000000000000000000000000000000000000000000000000000815260040161025490610d5e565b60405180910390fd5b47905090565b61026b6106e7565b73ffffffffffffffffffffffffffffffffffffffff166102896102eb565b73ffffffffffffffffffffffffffffffffffffffff16146102df576040517f08c379a00000000000000000000000000000000000000000000000000000000081526004016102d690610d5e565b60405180910390fd5b6102e960006106ef565b565b60008060009054906101000a900473ffffffffffffffffffffffffffffffffffffffff16905090565b6001600083815260200190815260200160002060009054906101000a900460ff1615610375576040517f08c379a000000000000000000000000000000000000000000000000000000000815260040161036c90610dca565b60405180910390fd5b600180600084815260200190815260200160002060006101000a81548160ff02191690831515021790555060006103de6103ad6106e7565b8585306040516020016103c39493929190610eba565b604051602081830303815290604052805190602001206107b3565b90506103e86102eb565b73ffffffffffffffffffffffffffffffffffffffff1661041183836107e390919063ffffffff16565b73ffffffffffffffffffffffffffffffffffffffff1614610467576040517f08c379a000000000000000000000000000000000000000000000000000000000815260040161045e90610f54565b60405180910390fd5b61046f6106e7565b73ffffffffffffffffffffffffffffffffffffffff166108fc859081150290604051600060405180830381858888f193505050501580156104b4573d6000803e3d6000fd5b506104bd6106e7565b73ffffffffffffffffffffffffffffffffffffffff167f259518171e898fe96b33f374a520999c252ee3effda8db766b04eec5dbc8a4ad600242604051610505929190611009565b60405180910390a250505050565b600360009054906101000a900473ffffffffffffffffffffffffffffffffffffffff1681565b6105416106e7565b73ffffffffffffffffffffffffffffffffffffffff1661055f6102eb565b73ffffffffffffffffffffffffffffffffffffffff16146105b5576040517f08c379a00000000000000000000000000000000000000000000000000000000081526004016105ac90610d5e565b60405180910390fd5b600073ffffffffffffffffffffffffffffffffffffffff168173ffffffffffffffffffffffffffffffffffffffff1603610624576040517f08c379a000000000000000000000000000000000000000000000000000000000815260040161061b906110ab565b60405180910390fd5b61062d816106ef565b50565b6106386106e7565b73ffffffffffffffffffffffffffffffffffffffff16600360009054906101000a900473ffffffffffffffffffffffffffffffffffffffff1673ffffffffffffffffffffffffffffffffffffffff16146106c7576040517f08c379a00000000000000000000000000000000000000000000000000000000081526004016106be90611117565b60405180910390fd5b6106cf6102eb565b73ffffffffffffffffffffffffffffffffffffffff16ff5b600033905090565b60008060009054906101000a900473ffffffffffffffffffffffffffffffffffffffff169050816000806101000a81548173ffffffffffffffffffffffffffffffffffffffff021916908373ffffffffffffffffffffffffffffffffffffffff1602179055508173ffffffffffffffffffffffffffffffffffffffff168173ffffffffffffffffffffffffffffffffffffffff167f8be0079c531659141344cd1fd0a4f28419497f9722a3daafe3b4186f6b6457e060405160405180910390a35050565b6000816040516020016107c691906111b9565b604051602081830303815290604052805190602001209050919050565b6000806000806107f285610852565b9250925092506001868484846040516000815260200160405260405161081b949392919061120a565b6020604051602081039080840390855afa15801561083d573d6000803e3d6000fd5b50505060206040510351935050505092915050565b6000806000604184511461089b576040517f08c379a00000000000000000000000000000000000000000000000000000000081526004016108929061129b565b60405180910390fd5b602084015191506040840151905060ff6041850151169250601b8360ff1610156108cf57601b836108cc91906112ea565b92505b601b8360ff1614806108e45750601c8360ff16145b610923576040517f08c379a000000000000000000000000000000000000000000000000000000000815260040161091a9061136d565b60405180910390fd5b9193909250565b600081519050919050565b600082825260208201905092915050565b60005b83811015610964578082015181840152602081019050610949565b83811115610973576000848401525b50505050565b6000601f19601f8301169050919050565b60006109958261092a565b61099f8185610935565b93506109af818560208601610946565b6109b881610979565b840191505092915050565b600060208201905081810360008301526109dd818461098a565b905092915050565b6000819050919050565b6109f8816109e5565b82525050565b6000602082019050610a1360008301846109ef565b92915050565b600073ffffffffffffffffffffffffffffffffffffffff82169050919050565b6000610a4482610a19565b9050919050565b610a5481610a39565b82525050565b6000602082019050610a6f6000830184610a4b565b92915050565b6000604051905090565b600080fd5b600080fd5b610a92816109e5565b8114610a9d57600080fd5b50565b600081359050610aaf81610a89565b92915050565b600080fd5b600080fd5b7f4e487b7100000000000000000000000000000000000000000000000000000000600052604160045260246000fd5b610af782610979565b810181811067ffffffffffffffff82111715610b1657610b15610abf565b5b80604052505050565b6000610b29610a75565b9050610b358282610aee565b919050565b600067ffffffffffffffff821115610b5557610b54610abf565b5b610b5e82610979565b9050602081019050919050565b82818337600083830152505050565b6000610b8d610b8884610b3a565b610b1f565b905082815260208101848484011115610ba957610ba8610aba565b5b610bb4848285610b6b565b509392505050565b600082601f830112610bd157610bd0610ab5565b5b8135610be1848260208601610b7a565b91505092915050565b600080600060608486031215610c0357610c02610a7f565b5b6000610c1186828701610aa0565b9350506020610c2286828701610aa0565b925050604084013567ffffffffffffffff811115610c4357610c42610a84565b5b610c4f86828701610bbc565b9150509250925092565b610c6281610a39565b8114610c6d57600080fd5b50565b600081359050610c7f81610c59565b92915050565b600060208284031215610c9b57610c9a610a7f565b5b6000610ca984828501610c70565b91505092915050565b7f4e487b7100000000000000000000000000000000000000000000000000000000600052602260045260246000fd5b60006002820490506001821680610cf957607f821691505b602082108103610d0c57610d0b610cb2565b5b50919050565b7f4f776e61626c653a2063616c6c6572206973206e6f7420746865206f776e6572600082015250565b6000610d48602083610935565b9150610d5382610d12565b602082019050919050565b60006020820190508181036000830152610d7781610d3b565b9050919050565b7f436c61696d20616c726561647920646f6e650000000000000000000000000000600082015250565b6000610db4601283610935565b9150610dbf82610d7e565b602082019050919050565b60006020820190508181036000830152610de381610da7565b9050919050565b60008160601b9050919050565b6000610e0282610dea565b9050919050565b6000610e1482610df7565b9050919050565b610e2c610e2782610a39565b610e09565b82525050565b6000819050919050565b610e4d610e48826109e5565b610e32565b82525050565b6000819050919050565b6000610e78610e73610e6e84610a19565b610e53565b610a19565b9050919050565b6000610e8a82610e5d565b9050919050565b6000610e9c82610e7f565b9050919050565b610eb4610eaf82610e91565b610e09565b82525050565b6000610ec68287610e1b565b601482019150610ed68286610e3c565b602082019150610ee68285610e3c565b602082019150610ef68284610ea3565b60148201915081905095945050505050565b7f5369676e617475726520697320696e76616c6964205b6f776e65725d00000000600082015250565b6000610f3e601c83610935565b9150610f4982610f08565b602082019050919050565b60006020820190508181036000830152610f6d81610f31565b9050919050565b60008190508160005260206000209050919050565b60008154610f9681610ce1565b610fa08186610935565b94506001821660008114610fbb5760018114610fcd57611000565b60ff1983168652602086019350611000565b610fd685610f74565b60005b83811015610ff857815481890152600182019150602081019050610fd9565b808801955050505b50505092915050565b600060408201905081810360008301526110238185610f89565b905061103260208301846109ef565b9392505050565b7f4f776e61626c653a206e6577206f776e657220697320746865207a65726f206160008201527f6464726573730000000000000000000000000000000000000000000000000000602082015250565b6000611095602683610935565b91506110a082611039565b604082019050919050565b600060208201905081810360008301526110c481611088565b9050919050565b7f43616c6c6572206973206e6f74207468652063726561746f7200000000000000600082015250565b6000611101601983610935565b915061110c826110cb565b602082019050919050565b60006020820190508181036000830152611130816110f4565b9050919050565b600081905092915050565b7f19457468657265756d205369676e6564204d6573736167653a0a333200000000600082015250565b6000611178601c83611137565b915061118382611142565b601c82019050919050565b6000819050919050565b6000819050919050565b6111b36111ae8261118e565b611198565b82525050565b60006111c48261116b565b91506111d082846111a2565b60208201915081905092915050565b6111e88161118e565b82525050565b600060ff82169050919050565b611204816111ee565b82525050565b600060808201905061121f60008301876111df565b61122c60208301866111fb565b61123960408301856111df565b61124660608301846111df565b95945050505050565b7f5369676e617475726520697320696e76616c6964205b6c656e6774685d000000600082015250565b6000611285601d83610935565b91506112908261124f565b602082019050919050565b600060208201905081810360008301526112b481611278565b9050919050565b7f4e487b7100000000000000000000000000000000000000000000000000000000600052601160045260246000fd5b60006112f5826111ee565b9150611300836111ee565b92508260ff03821115611316576113156112bb565b5b828201905092915050565b7f5369676e617475726520697320696e76616c6964205b666f726d61745d000000600082015250565b6000611357601d83610935565b915061136282611321565b602082019050919050565b600060208201905081810360008301526113868161134a565b905091905056fea2646970667358221220a9d7575528373b099b52fa3de203321cdddcdeba134627b65175ae0f5b17a89a64736f6c634300080d0033a264697066735822122035f26f304174381e5a06828ed5da496a9da739b138a2a28f1bc5493ed400305164736f6c634300080d0033",
  "immutableReferences": {},
  "source": "// SPDX-License-Identifier: GPL-3.0\r\npragma solidity ^0.8.10;\r\n\r\nimport \"@openzeppelin/contracts/access/Ownable.sol\";\r\nimport \"./Micropayments.sol\";\r\n\r\ncontract MicropaymentsFactory is Ownable {\r\n    struct MicropaymentData {\r\n        address location;\r\n        string name;\r\n    }\r\n\r\n    Micropayments[] public contracts;\r\n    mapping(bytes32 => address) private nameToAddress;\r\n    mapping(address => uint256) private addressToIndex;\r\n\r\n    event MicropaymentsCreated(address indexed from, address indexed location, string name, uint256 createdAt, uint256 value);\r\n    event MicropaymentsDeleted(address indexed from, address indexed location);\r\n\r\n    function createMicropayment(string memory name) external payable onlyOwner {\r\n        bytes32 nameHash = keccak256(bytes(name));\r\n        require(nameToAddress[nameHash] == address(0), \"[Factory] Name already exists\");\r\n\r\n        Micropayments micropaymentContract = (new Micropayments){value: msg.value}(name);\r\n        micropaymentContract.transferOwnership(_msgSender());\r\n\r\n        addressToIndex[address(micropaymentContract)] = contracts.length;\r\n        nameToAddress[nameHash] = address(micropaymentContract);\r\n        contracts.push(micropaymentContract);\r\n\r\n        emit MicropaymentsCreated(_msgSender(), address(micropaymentContract), name, block.timestamp, msg.value);\r\n    }\r\n\r\n    function getMicropaymentsContracts() external view returns (MicropaymentData[] memory _contracts) {\r\n        _contracts = new MicropaymentData[](contracts.length);\r\n        for (uint256 i = 0; i < contracts.length; i++) {\r\n            _contracts[i].location = address(contracts[i]);\r\n            _contracts[i].name = Micropayments(contracts[i]).name();\r\n        }\r\n    }\r\n\r\n    function getMicropaymentsContractAddress(string memory name) external view returns (address) {\r\n        bytes32 nameHash = keccak256(bytes(name));\r\n        return nameToAddress[nameHash];\r\n    }\r\n\r\n    function deleteContract(address location) external onlyOwner {\r\n        uint256 contractIndex = addressToIndex[location];\r\n        Micropayments toDelete = Micropayments(contracts[contractIndex]);\r\n\r\n        bytes32 nameHash = keccak256(bytes(toDelete.name()));\r\n        nameToAddress[nameHash] = address(0);\r\n\r\n        toDelete.shutdown();\r\n\r\n        addressToIndex[address(Micropayments(contracts[contracts.length - 1]))] = contractIndex;\r\n        contracts[contractIndex] = contracts[contracts.length - 1];\r\n        contracts.pop();\r\n\r\n        emit MicropaymentsDeleted(_msgSender(), location);\r\n    }\r\n}\r\n",
  "sourcePath": "C:\\SouthWorks\\Micropayments\\contracts\\MicropaymentsFactory.sol",
  "compiler": {
    "name": "solc",
    "version": "0.8.13+commit.abaa5c0e.Emscripten.clang"
  },
  "schemaVersion": "3.4.4",
  "updatedAt": "2022-04-11T15:43:09.714Z",
  "networkType": "ethereum",
  "devdoc": {
    "kind": "dev",
    "methods": {
      "owner()": {
        "details": "Returns the address of the current owner."
      },
      "renounceOwnership()": {
        "details": "Leaves the contract without owner. It will not be possible to call `onlyOwner` functions anymore. Can only be called by the current owner. NOTE: Renouncing ownership will leave the contract without an owner, thereby removing any functionality that is only available to the owner."
      },
      "transferOwnership(address)": {
        "details": "Transfers ownership of the contract to a new account (`newOwner`). Can only be called by the current owner."
      }
    },
    "version": 1
  },
  "userdoc": {
    "kind": "user",
    "methods": {},
    "version": 1
  }
}